{
  "contractName": "QlipMarketPlace",
  "abi": [
    {
      "inputs": [
        {
          "internalType": "string",
          "name": "_name",
          "type": "string"
        },
        {
          "internalType": "string",
          "name": "_symbol",
          "type": "string"
        }
      ],
      "stateMutability": "nonpayable",
      "type": "constructor"
    },
    {
      "anonymous": false,
      "inputs": [
        {
          "indexed": true,
          "internalType": "address",
          "name": "owner",
          "type": "address"
        },
        {
          "indexed": true,
          "internalType": "address",
          "name": "approved",
          "type": "address"
        },
        {
          "indexed": true,
          "internalType": "uint256",
          "name": "tokenId",
          "type": "uint256"
        }
      ],
      "name": "Approval",
      "type": "event"
    },
    {
      "anonymous": false,
      "inputs": [
        {
          "indexed": true,
          "internalType": "address",
          "name": "owner",
          "type": "address"
        },
        {
          "indexed": true,
          "internalType": "address",
          "name": "operator",
          "type": "address"
        },
        {
          "indexed": false,
          "internalType": "bool",
          "name": "approved",
          "type": "bool"
        }
      ],
      "name": "ApprovalForAll",
      "type": "event"
    },
    {
      "anonymous": false,
      "inputs": [
        {
          "indexed": false,
          "internalType": "address",
          "name": "minter",
          "type": "address"
        },
        {
          "indexed": false,
          "internalType": "string",
          "name": "tokenURI",
          "type": "string"
        },
        {
          "indexed": false,
          "internalType": "uint256",
          "name": "tokenId",
          "type": "uint256"
        }
      ],
      "name": "Minted",
      "type": "event"
    },
    {
      "anonymous": false,
      "inputs": [
        {
          "indexed": false,
          "internalType": "address",
          "name": "receiver",
          "type": "address"
        },
        {
          "indexed": false,
          "internalType": "uint256",
          "name": "tokenId",
          "type": "uint256"
        }
      ],
      "name": "Transfer",
      "type": "event"
    },
    {
      "anonymous": false,
      "inputs": [
        {
          "indexed": true,
          "internalType": "address",
          "name": "from",
          "type": "address"
        },
        {
          "indexed": true,
          "internalType": "address",
          "name": "to",
          "type": "address"
        },
        {
          "indexed": true,
          "internalType": "uint256",
          "name": "tokenId",
          "type": "uint256"
        }
      ],
      "name": "Transfer",
      "type": "event"
    },
    {
      "inputs": [
        {
          "internalType": "uint256",
          "name": "",
          "type": "uint256"
        }
      ],
      "name": "NFTSTates",
      "outputs": [
        {
          "internalType": "uint256",
          "name": "tokenId",
          "type": "uint256"
        },
        {
          "internalType": "enum QlipMarketPlace.NFTState",
          "name": "nftState",
          "type": "uint8"
        }
      ],
      "stateMutability": "view",
      "type": "function"
    },
    {
      "inputs": [
        {
          "internalType": "uint256",
          "name": "",
          "type": "uint256"
        }
      ],
      "name": "TokenDetails",
      "outputs": [
        {
          "internalType": "address",
          "name": "ownerAddress",
          "type": "address"
        },
        {
          "internalType": "uint256",
          "name": "_id",
          "type": "uint256"
        },
        {
          "internalType": "uint16",
          "name": "_category",
          "type": "uint16"
        },
        {
          "internalType": "string",
          "name": "tokenURI_",
          "type": "string"
        }
      ],
      "stateMutability": "view",
      "type": "function"
    },
    {
      "inputs": [],
      "name": "_claimedTokens",
      "outputs": [
        {
          "internalType": "uint256",
          "name": "_value",
          "type": "uint256"
        }
      ],
      "stateMutability": "view",
      "type": "function"
    },
    {
      "inputs": [],
      "name": "_tokenIds",
      "outputs": [
        {
          "internalType": "uint256",
          "name": "_value",
          "type": "uint256"
        }
      ],
      "stateMutability": "view",
      "type": "function"
    },
    {
      "inputs": [],
      "name": "admin",
      "outputs": [
        {
          "internalType": "address",
          "name": "",
          "type": "address"
        }
      ],
      "stateMutability": "view",
      "type": "function"
    },
    {
      "inputs": [
        {
          "internalType": "uint256",
          "name": "",
          "type": "uint256"
        }
      ],
      "name": "allTokens",
      "outputs": [
        {
          "internalType": "address",
          "name": "ownerAddress",
          "type": "address"
        },
        {
          "internalType": "uint256",
          "name": "_id",
          "type": "uint256"
        },
        {
          "internalType": "uint16",
          "name": "_category",
          "type": "uint16"
        },
        {
          "internalType": "string",
          "name": "tokenURI_",
          "type": "string"
        }
      ],
      "stateMutability": "view",
      "type": "function"
    },
    {
      "inputs": [
        {
          "internalType": "address",
          "name": "to",
          "type": "address"
        },
        {
          "internalType": "uint256",
          "name": "tokenId",
          "type": "uint256"
        }
      ],
      "name": "approve",
      "outputs": [],
      "stateMutability": "nonpayable",
      "type": "function"
    },
    {
      "inputs": [
        {
          "internalType": "address",
          "name": "owner",
          "type": "address"
        }
      ],
      "name": "balanceOf",
      "outputs": [
        {
          "internalType": "uint256",
          "name": "",
          "type": "uint256"
        }
      ],
      "stateMutability": "view",
      "type": "function"
    },
    {
      "inputs": [
        {
          "internalType": "uint256",
          "name": "tokenId",
          "type": "uint256"
        }
      ],
      "name": "getApproved",
      "outputs": [
        {
          "internalType": "address",
          "name": "",
          "type": "address"
        }
      ],
      "stateMutability": "view",
      "type": "function"
    },
    {
      "inputs": [
        {
          "internalType": "address",
          "name": "owner",
          "type": "address"
        },
        {
          "internalType": "address",
          "name": "operator",
          "type": "address"
        }
      ],
      "name": "isApprovedForAll",
      "outputs": [
        {
          "internalType": "bool",
          "name": "",
          "type": "bool"
        }
      ],
      "stateMutability": "view",
      "type": "function"
    },
    {
      "inputs": [],
      "name": "name",
      "outputs": [
        {
          "internalType": "string",
          "name": "",
          "type": "string"
        }
      ],
      "stateMutability": "view",
      "type": "function"
    },
    {
      "inputs": [
        {
          "internalType": "uint256",
          "name": "",
          "type": "uint256"
        }
      ],
      "name": "nftStates",
      "outputs": [
        {
          "internalType": "uint256",
          "name": "tokenId",
          "type": "uint256"
        },
        {
          "internalType": "enum QlipMarketPlace.NFTState",
          "name": "nftState",
          "type": "uint8"
        }
      ],
      "stateMutability": "view",
      "type": "function"
    },
    {
      "inputs": [
        {
          "internalType": "uint256",
          "name": "tokenId",
          "type": "uint256"
        }
      ],
      "name": "ownerOf",
      "outputs": [
        {
          "internalType": "address",
          "name": "",
          "type": "address"
        }
      ],
      "stateMutability": "view",
      "type": "function"
    },
    {
      "inputs": [
        {
          "internalType": "uint256",
          "name": "",
          "type": "uint256"
        }
      ],
      "name": "qlipNFTs",
      "outputs": [
        {
          "internalType": "address",
          "name": "ownerAddress",
          "type": "address"
        },
        {
          "internalType": "uint256",
          "name": "_id",
          "type": "uint256"
        },
        {
          "internalType": "uint16",
          "name": "_category",
          "type": "uint16"
        },
        {
          "internalType": "string",
          "name": "tokenURI_",
          "type": "string"
        }
      ],
      "stateMutability": "view",
      "type": "function"
    },
    {
      "inputs": [
        {
          "internalType": "address",
          "name": "operator",
          "type": "address"
        },
        {
          "internalType": "bool",
          "name": "approved",
          "type": "bool"
        }
      ],
      "name": "setApprovalForAll",
      "outputs": [],
      "stateMutability": "nonpayable",
      "type": "function"
    },
    {
      "inputs": [],
      "name": "symbol",
      "outputs": [
        {
          "internalType": "string",
          "name": "",
          "type": "string"
        }
      ],
      "stateMutability": "view",
      "type": "function"
    },
    {
      "inputs": [
        {
          "internalType": "uint256",
          "name": "",
          "type": "uint256"
        }
      ],
      "name": "tokenIsAtIndex",
      "outputs": [
        {
          "internalType": "uint256",
          "name": "",
          "type": "uint256"
        }
      ],
      "stateMutability": "view",
      "type": "function"
    },
    {
      "inputs": [
        {
          "internalType": "uint256",
          "name": "tokenId",
          "type": "uint256"
        }
      ],
      "name": "tokenURI",
      "outputs": [
        {
          "internalType": "string",
          "name": "",
          "type": "string"
        }
      ],
      "stateMutability": "view",
      "type": "function"
    },
    {
      "inputs": [
        {
          "internalType": "address",
          "name": "from",
          "type": "address"
        },
        {
          "internalType": "address",
          "name": "to",
          "type": "address"
        },
        {
          "internalType": "uint256",
          "name": "tokenId",
          "type": "uint256"
        }
      ],
      "name": "transferFrom",
      "outputs": [],
      "stateMutability": "nonpayable",
      "type": "function"
    },
    {
      "inputs": [
        {
          "internalType": "address",
          "name": "",
          "type": "address"
        },
        {
          "internalType": "uint256",
          "name": "",
          "type": "uint256"
        }
      ],
      "name": "userOwnedTokens",
      "outputs": [
        {
          "internalType": "uint256",
          "name": "",
          "type": "uint256"
        }
      ],
      "stateMutability": "view",
      "type": "function"
    },
    {
      "inputs": [
        {
          "internalType": "bytes4",
          "name": "interfaceId",
          "type": "bytes4"
        }
      ],
      "name": "supportsInterface",
      "outputs": [
        {
          "internalType": "bool",
          "name": "",
          "type": "bool"
        }
      ],
      "stateMutability": "view",
      "type": "function"
    },
    {
      "inputs": [
        {
          "internalType": "address[]",
          "name": "claimers",
          "type": "address[]"
        }
      ],
      "name": "whiteListClaimAddress",
      "outputs": [],
      "stateMutability": "nonpayable",
      "type": "function"
    },
    {
      "inputs": [
        {
          "internalType": "address",
          "name": "operator",
          "type": "address"
        },
        {
          "internalType": "address",
          "name": "from",
          "type": "address"
        },
        {
          "internalType": "uint256",
          "name": "tokenId",
          "type": "uint256"
        },
        {
          "internalType": "bytes",
          "name": "data",
          "type": "bytes"
        }
      ],
      "name": "onERC721Received",
      "outputs": [
        {
          "internalType": "bytes4",
          "name": "",
          "type": "bytes4"
        }
      ],
      "stateMutability": "pure",
      "type": "function"
    },
    {
      "inputs": [
        {
          "internalType": "address",
          "name": "_nftAddress",
          "type": "address"
        }
      ],
      "name": "claimNFTs",
      "outputs": [],
      "stateMutability": "nonpayable",
      "type": "function"
    },
    {
      "inputs": [
        {
          "internalType": "address",
          "name": "to",
          "type": "address"
        },
        {
          "internalType": "string[]",
          "name": "tokenURI",
          "type": "string[]"
        }
      ],
      "name": "mintWithIndex",
      "outputs": [],
      "stateMutability": "nonpayable",
      "type": "function"
    },
    {
      "inputs": [
        {
          "internalType": "address",
          "name": "from",
          "type": "address"
        },
        {
          "internalType": "address",
          "name": "to",
          "type": "address"
        },
        {
          "internalType": "uint256",
          "name": "tokenId",
          "type": "uint256"
        }
      ],
      "name": "safeTransferFrom",
      "outputs": [],
      "stateMutability": "nonpayable",
      "type": "function"
    },
    {
      "inputs": [
        {
          "internalType": "address",
          "name": "from",
          "type": "address"
        },
        {
          "internalType": "address",
          "name": "to",
          "type": "address"
        },
        {
          "internalType": "uint256",
          "name": "tokenId",
          "type": "uint256"
        },
        {
          "internalType": "bytes",
          "name": "_data",
          "type": "bytes"
        }
      ],
      "name": "safeTransferFrom",
      "outputs": [],
      "stateMutability": "nonpayable",
      "type": "function"
    },
    {
      "inputs": [
        {
          "internalType": "address",
          "name": "receiver",
          "type": "address"
        },
        {
          "internalType": "uint256[]",
          "name": "tokenIds",
          "type": "uint256[]"
        },
        {
          "internalType": "address",
          "name": "_nftAddress",
          "type": "address"
        }
      ],
      "name": "transferBeningin",
      "outputs": [],
      "stateMutability": "nonpayable",
      "type": "function"
    },
    {
      "inputs": [],
      "name": "getAllTokens",
      "outputs": [
        {
          "components": [
            {
              "internalType": "address",
              "name": "ownerAddress",
              "type": "address"
            },
            {
              "internalType": "uint256",
              "name": "_id",
              "type": "uint256"
            },
            {
              "internalType": "uint16",
              "name": "_category",
              "type": "uint16"
            },
            {
              "internalType": "string",
              "name": "tokenURI_",
              "type": "string"
            }
          ],
          "internalType": "struct QlipMarketPlace.NFTDet[]",
          "name": "",
          "type": "tuple[]"
        }
      ],
      "stateMutability": "view",
      "type": "function"
    },
    {
      "inputs": [
        {
          "internalType": "address",
          "name": "_nftAddress",
          "type": "address"
        }
      ],
      "name": "__getNftByAddress",
      "outputs": [
        {
          "internalType": "uint256[]",
          "name": "",
          "type": "uint256[]"
        }
      ],
      "stateMutability": "view",
      "type": "function"
    },
    {
      "inputs": [
        {
          "internalType": "address",
          "name": "_nftAddress",
          "type": "address"
        }
      ],
      "name": "getNftByAddress",
      "outputs": [
        {
          "internalType": "uint256[]",
          "name": "",
          "type": "uint256[]"
        }
      ],
      "stateMutability": "view",
      "type": "function"
    },
    {
      "inputs": [
        {
          "internalType": "uint256",
          "name": "tokenId",
          "type": "uint256"
        }
      ],
      "name": "getNFTState",
      "outputs": [
        {
          "internalType": "enum QlipMarketPlace.NFTState",
          "name": "",
          "type": "uint8"
        }
      ],
      "stateMutability": "view",
      "type": "function"
    },
    {
      "inputs": [
        {
          "internalType": "address",
          "name": "owner",
          "type": "address"
        }
      ],
      "name": "isQLIPMinted",
      "outputs": [
        {
          "internalType": "bool",
          "name": "",
          "type": "bool"
        }
      ],
      "stateMutability": "view",
      "type": "function"
    }
  ],
  "bytecode": "0x60806040523480156200001157600080fd5b5060405162004ae038038062004ae08339818101604052810190620000379190620001d8565b8181816000908051906020019062000051929190620000b6565b5080600190805190602001906200006a929190620000b6565b50505033600d60006101000a81548173ffffffffffffffffffffffffffffffffffffffff021916908373ffffffffffffffffffffffffffffffffffffffff16021790555050506200037c565b828054620000c490620002e8565b90600052602060002090601f016020900481019282620000e8576000855562000134565b82601f106200010357805160ff191683800117855562000134565b8280016001018555821562000134579182015b828111156200013357825182559160200191906001019062000116565b5b50905062000143919062000147565b5090565b5b808211156200016257600081600090555060010162000148565b5090565b60006200017d62000177846200027f565b6200024b565b9050828152602081018484840111156200019657600080fd5b620001a3848285620002b2565b509392505050565b600082601f830112620001bd57600080fd5b8151620001cf84826020860162000166565b91505092915050565b60008060408385031215620001ec57600080fd5b600083015167ffffffffffffffff8111156200020757600080fd5b6200021585828601620001ab565b925050602083015167ffffffffffffffff8111156200023357600080fd5b6200024185828601620001ab565b9150509250929050565b6000604051905081810181811067ffffffffffffffff821117156200027557620002746200034d565b5b8060405250919050565b600067ffffffffffffffff8211156200029d576200029c6200034d565b5b601f19601f8301169050602081019050919050565b60005b83811015620002d2578082015181840152602081019050620002b5565b83811115620002e2576000848401525b50505050565b600060028204905060018216806200030157607f821691505b602082108114156200031857620003176200031e565b5b50919050565b7f4e487b7100000000000000000000000000000000000000000000000000000000600052602260045260246000fd5b7f4e487b7100000000000000000000000000000000000000000000000000000000600052604160045260246000fd5b614754806200038c6000396000f3fe608060405234801561001057600080fd5b50600436106101fb5760003560e01c8063694e75ae1161011a578063bdf72a75116100ad578063ceccf4a51161007c578063ceccf4a514610663578063e985e9c514610693578063f851a440146106c3578063fa364daf146106e1578063fd285869146106fd576101fb565b8063bdf72a75146105b7578063c2f83319146105e7578063c54535f914610617578063c87b56dd14610633576101fb565b806395d89b41116100e957806395d89b4114610543578063a22cb46514610561578063aa46a4001461057d578063b88d4fde1461059b576101fb565b8063694e75ae1461049557806370a08231146104c65780637447bb04146104f65780638ef6222414610527576101fb565b806324f664a71161019257806343af28ab1161016157806343af28ab146103e657806361b5ca8014610402578063634282af146104325780636352211e14610465576101fb565b806324f664a7146103465780632a5c792a14610379578063369957021461039757806342842e0e146103ca576101fb565b806314b924e2116101ce57806314b924e21461029a578063150b7a02146102ca5780631ece83b0146102fa57806323b872dd1461032a576101fb565b806301ffc9a71461020057806306fdde0314610230578063081812fc1461024e578063095ea7b31461027e575b600080fd5b61021a6004803603810190610215919061338f565b61071b565b6040516102279190613edc565b60405180910390f35b61023861072d565b6040516102459190613f2d565b60405180910390f35b610268600480360381019061026391906133e1565b6107bf565b6040516102759190613d47565b60405180910390f35b6102986004803603810190610293919061330e565b610844565b005b6102b460048036038101906102af919061330e565b61095c565b6040516102c1919061416f565b60405180910390f35b6102e460048036038101906102df919061311c565b61098d565b6040516102f19190613ef7565b60405180910390f35b610314600480360381019061030f91906133e1565b6109bb565b6040516103219190613f12565b60405180910390f35b610344600480360381019061033f91906130cd565b6109e8565b005b610360600480360381019061035b91906133e1565b610a48565b6040516103709493929190613e4c565b60405180910390f35b610381610b3e565b60405161038e9190613e98565b60405180910390f35b6103b160048036038101906103ac91906133e1565b610caf565b6040516103c19493929190613e4c565b60405180910390f35b6103e460048036038101906103df91906130cd565b610d95565b005b61040060048036038101906103fb9190613068565b610db5565b005b61041c60048036038101906104179190613068565b611081565b6040516104299190613eba565b60405180910390f35b61044c600480360381019061044791906133e1565b611118565b60405161045c9493929190613e4c565b60405180910390f35b61047f600480360381019061047a91906133e1565b61120e565b60405161048c9190613d47565b60405180910390f35b6104af60048036038101906104aa91906133e1565b6112c0565b6040516104bd92919061418a565b60405180910390f35b6104e060048036038101906104db9190613068565b6112f1565b6040516104ed919061416f565b60405180910390f35b610510600480360381019061050b91906133e1565b6113a9565b60405161051e92919061418a565b60405180910390f35b610541600480360381019061053c919061334a565b6113ea565b005b61054b6114fc565b6040516105589190613f2d565b60405180910390f35b61057b600480360381019061057691906132d2565b61158e565b005b61058561170f565b604051610592919061416f565b60405180910390f35b6105b560048036038101906105b0919061319c565b61171b565b005b6105d160048036038101906105cc9190613068565b6118ce565b6040516105de9190613edc565b60405180910390f35b61060160048036038101906105fc91906133e1565b61193c565b60405161060e919061416f565b60405180910390f35b610631600480360381019061062c919061326b565b611954565b005b61064d600480360381019061064891906133e1565b611b01565b60405161065a9190613f2d565b60405180910390f35b61067d60048036038101906106789190613068565b611c53565b60405161068a9190613eba565b60405180910390f35b6106ad60048036038101906106a89190613091565b611db4565b6040516106ba9190613edc565b60405180910390f35b6106cb611e48565b6040516106d89190613d47565b60405180910390f35b6106fb60048036038101906106f69190613217565b611e6e565b005b610705612040565b604051610712919061416f565b60405180910390f35b60006107268261204c565b9050919050565b60606000805461073c90614506565b80601f016020809104026020016040519081016040528092919081815260200182805461076890614506565b80156107b55780601f1061078a576101008083540402835291602001916107b5565b820191906000526020600020905b81548152906001019060200180831161079857829003601f168201915b5050505050905090565b60006107ca8261212e565b610809576040517f08c379a0000000000000000000000000000000000000000000000000000000008152600401610800906140cf565b60405180910390fd5b6004600083815260200190815260200160002060009054906101000a900473ffffffffffffffffffffffffffffffffffffffff169050919050565b600061084f8261120e565b90508073ffffffffffffffffffffffffffffffffffffffff168373ffffffffffffffffffffffffffffffffffffffff1614156108c0576040517f08c379a00000000000000000000000000000000000000000000000000000000081526004016108b79061412f565b60405180910390fd5b8073ffffffffffffffffffffffffffffffffffffffff166108df61219a565b73ffffffffffffffffffffffffffffffffffffffff16148061090e575061090d8161090861219a565b611db4565b5b61094d576040517f08c379a00000000000000000000000000000000000000000000000000000000081526004016109449061400f565b60405180910390fd5b61095783836121a2565b505050565b600e602052816000526040600020818154811061097857600080fd5b90600052602060002001600091509150505481565b60007f150b7a023d4804d13e8c85fb27262cb750cf6ba9f9dd3bb30d90f482ceeb4b1f905095945050505050565b6000600c600083815260200190815260200160002060010160009054906101000a900460ff169050919050565b6109f96109f361219a565b8261225b565b610a38576040517f08c379a0000000000000000000000000000000000000000000000000000000008152600401610a2f9061414f565b60405180910390fd5b610a43838383612339565b505050565b60128181548110610a5857600080fd5b90600052602060002090600402016000915090508060000160009054906101000a900473ffffffffffffffffffffffffffffffffffffffff16908060010154908060020160009054906101000a900461ffff1690806003018054610abb90614506565b80601f0160208091040260200160405190810160405280929190818152602001828054610ae790614506565b8015610b345780601f10610b0957610100808354040283529160200191610b34565b820191906000526020600020905b815481529060010190602001808311610b1757829003601f168201915b5050505050905084565b60606014805480602002602001604051908101604052809291908181526020016000905b82821015610ca657838290600052602060002090600402016040518060800160405290816000820160009054906101000a900473ffffffffffffffffffffffffffffffffffffffff1673ffffffffffffffffffffffffffffffffffffffff1673ffffffffffffffffffffffffffffffffffffffff168152602001600182015481526020016002820160009054906101000a900461ffff1661ffff1661ffff168152602001600382018054610c1590614506565b80601f0160208091040260200160405190810160405280929190818152602001828054610c4190614506565b8015610c8e5780601f10610c6357610100808354040283529160200191610c8e565b820191906000526020600020905b815481529060010190602001808311610c7157829003601f168201915b50505050508152505081526020019060010190610b62565b50505050905090565b600b6020528060005260406000206000915090508060000160009054906101000a900473ffffffffffffffffffffffffffffffffffffffff16908060010154908060020160009054906101000a900461ffff1690806003018054610d1290614506565b80601f0160208091040260200160405190810160405280929190818152602001828054610d3e90614506565b8015610d8b5780601f10610d6057610100808354040283529160200191610d8b565b820191906000526020600020905b815481529060010190602001808311610d6e57829003601f168201915b5050505050905084565b610db08383836040518060200160405280600081525061171b565b505050565b6001601660003373ffffffffffffffffffffffffffffffffffffffff1673ffffffffffffffffffffffffffffffffffffffff1681526020019081526020016000205414610e37576040517f08c379a0000000000000000000000000000000000000000000000000000000008152600401610e2e90613f8f565b60405180910390fd5b6000819050610e466008612595565b6000610e5260086125ab565b90508173ffffffffffffffffffffffffffffffffffffffff166342842e0e3033846040518463ffffffff1660e01b8152600401610e9193929190613d62565b600060405180830381600087803b158015610eab57600080fd5b505af1158015610ebf573d6000803e3d6000fd5b505050507f69ca02dd4edd7bf0a4abb9ed3b7af3f14778db5d61921c7dc7cd545266326de23382604051610ef4929190613e23565b60405180910390a16064610f0860086125ab565b610f129190614362565b90508173ffffffffffffffffffffffffffffffffffffffff166342842e0e3033846040518463ffffffff1660e01b8152600401610f5193929190613d62565b600060405180830381600087803b158015610f6b57600080fd5b505af1158015610f7f573d6000803e3d6000fd5b505050507f69ca02dd4edd7bf0a4abb9ed3b7af3f14778db5d61921c7dc7cd545266326de23382604051610fb4929190613e23565b60405180910390a160c8610fc860086125ab565b610fd29190614362565b90508173ffffffffffffffffffffffffffffffffffffffff166342842e0e3033846040518463ffffffff1660e01b815260040161101193929190613d62565b600060405180830381600087803b15801561102b57600080fd5b505af115801561103f573d6000803e3d6000fd5b505050507f69ca02dd4edd7bf0a4abb9ed3b7af3f14778db5d61921c7dc7cd545266326de23382604051611074929190613e23565b60405180910390a1505050565b6060600e60008373ffffffffffffffffffffffffffffffffffffffff1673ffffffffffffffffffffffffffffffffffffffff16815260200190815260200160002080548060200260200160405190810160405280929190818152602001828054801561110c57602002820191906000526020600020905b8154815260200190600101908083116110f8575b50505050509050919050565b6014818154811061112857600080fd5b90600052602060002090600402016000915090508060000160009054906101000a900473ffffffffffffffffffffffffffffffffffffffff16908060010154908060020160009054906101000a900461ffff169080600301805461118b90614506565b80601f01602080910402602001604051908101604052809291908181526020018280546111b790614506565b80156112045780601f106111d957610100808354040283529160200191611204565b820191906000526020600020905b8154815290600101906020018083116111e757829003601f168201915b5050505050905084565b6000806002600084815260200190815260200160002060009054906101000a900473ffffffffffffffffffffffffffffffffffffffff169050600073ffffffffffffffffffffffffffffffffffffffff168173ffffffffffffffffffffffffffffffffffffffff1614156112b7576040517f08c379a00000000000000000000000000000000000000000000000000000000081526004016112ae9061404f565b60405180910390fd5b80915050919050565b600c6020528060005260406000206000915090508060000154908060010160009054906101000a900460ff16905082565b60008073ffffffffffffffffffffffffffffffffffffffff168273ffffffffffffffffffffffffffffffffffffffff161415611362576040517f08c379a00000000000000000000000000000000000000000000000000000000081526004016113599061402f565b60405180910390fd5b600360008373ffffffffffffffffffffffffffffffffffffffff1673ffffffffffffffffffffffffffffffffffffffff168152602001908152602001600020549050919050565b601381815481106113b957600080fd5b90600052602060002090600202016000915090508060000154908060010160009054906101000a900460ff16905082565b600d60009054906101000a900473ffffffffffffffffffffffffffffffffffffffff1673ffffffffffffffffffffffffffffffffffffffff163373ffffffffffffffffffffffffffffffffffffffff161461144457600080fd5b60005b828290508110156114f757600160166000858585818110611491577f4e487b7100000000000000000000000000000000000000000000000000000000600052603260045260246000fd5b90506020020160208101906114a69190613068565b73ffffffffffffffffffffffffffffffffffffffff1673ffffffffffffffffffffffffffffffffffffffff1681526020019081526020016000208190555080806114ef90614538565b915050611447565b505050565b60606001805461150b90614506565b80601f016020809104026020016040519081016040528092919081815260200182805461153790614506565b80156115845780601f1061155957610100808354040283529160200191611584565b820191906000526020600020905b81548152906001019060200180831161156757829003601f168201915b5050505050905090565b61159661219a565b73ffffffffffffffffffffffffffffffffffffffff168273ffffffffffffffffffffffffffffffffffffffff161415611604576040517f08c379a00000000000000000000000000000000000000000000000000000000081526004016115fb90613fcf565b60405180910390fd5b806005600061161161219a565b73ffffffffffffffffffffffffffffffffffffffff1673ffffffffffffffffffffffffffffffffffffffff16815260200190815260200160002060008473ffffffffffffffffffffffffffffffffffffffff1673ffffffffffffffffffffffffffffffffffffffff16815260200190815260200160002060006101000a81548160ff0219169083151502179055508173ffffffffffffffffffffffffffffffffffffffff166116be61219a565b73ffffffffffffffffffffffffffffffffffffffff167f17307eab39ab6107e8899845ad3d59bd9653f200f220920489ca2b5937696c31836040516117039190613edc565b60405180910390a35050565b60078060000154905081565b61172c61172661219a565b8361225b565b61176b576040517f08c379a00000000000000000000000000000000000000000000000000000000081526004016117629061414f565b60405180910390fd5b611777848484846125b9565b6000600f60008481526020019081526020016000205490506000600e60008773ffffffffffffffffffffffffffffffffffffffff1673ffffffffffffffffffffffffffffffffffffffff168152602001908152602001600020905080600182805490506117e491906143e9565b8154811061181b577f4e487b7100000000000000000000000000000000000000000000000000000000600052603260045260246000fd5b90600052602060002001548160018461183491906143e9565b8154811061186b577f4e487b7100000000000000000000000000000000000000000000000000000000600052603260045260246000fd5b9060005260206000200181905550808054806118b0577f4e487b7100000000000000000000000000000000000000000000000000000000600052603160045260246000fd5b60019003818190600052602060002001600090559055505050505050565b600060011515601060008473ffffffffffffffffffffffffffffffffffffffff1673ffffffffffffffffffffffffffffffffffffffff16815260200190815260200160002060009054906101000a900460ff16151514156119325760019050611937565b600090505b919050565b600f6020528060005260406000206000915090505481565b600d60009054906101000a900473ffffffffffffffffffffffffffffffffffffffff1673ffffffffffffffffffffffffffffffffffffffff163373ffffffffffffffffffffffffffffffffffffffff16146119ae57600080fd5b600081905060005b8351811015611afa578173ffffffffffffffffffffffffffffffffffffffff166342842e0e3087878581518110611a16577f4e487b7100000000000000000000000000000000000000000000000000000000600052603260045260246000fd5b60200260200101516040518463ffffffff1660e01b8152600401611a3c93929190613d62565b600060405180830381600087803b158015611a5657600080fd5b505af1158015611a6a573d6000803e3d6000fd5b505050507f69ca02dd4edd7bf0a4abb9ed3b7af3f14778db5d61921c7dc7cd545266326de285858381518110611ac9577f4e487b7100000000000000000000000000000000000000000000000000000000600052603260045260246000fd5b6020026020010151604051611adf929190613e23565b60405180910390a18080611af290614538565b9150506119b6565b5050505050565b6060611b0c8261212e565b611b4b576040517f08c379a0000000000000000000000000000000000000000000000000000000008152600401611b42906140af565b60405180910390fd5b6000600660008481526020019081526020016000208054611b6b90614506565b80601f0160208091040260200160405190810160405280929190818152602001828054611b9790614506565b8015611be45780601f10611bb957610100808354040283529160200191611be4565b820191906000526020600020905b815481529060010190602001808311611bc757829003601f168201915b505050505090506000611bf5612615565b9050600081511415611c0b578192505050611c4e565b600082511115611c40578082604051602001611c28929190613d23565b60405160208183030381529060405292505050611c4e565b611c498461262c565b925050505b919050565b6060600082905060606000805b601480549050811015611da8578373ffffffffffffffffffffffffffffffffffffffff16611cd860148381548110611cc1577f4e487b7100000000000000000000000000000000000000000000000000000000600052603260045260246000fd5b90600052602060002090600402016001015461120e565b73ffffffffffffffffffffffffffffffffffffffff161415611d955760148181548110611d2e577f4e487b7100000000000000000000000000000000000000000000000000000000600052603260045260246000fd5b906000526020600020906004020160010154838381518110611d79577f4e487b7100000000000000000000000000000000000000000000000000000000600052603260045260246000fd5b602002602001018181525050600182611d929190614362565b91505b8080611da090614538565b915050611c60565b50819350505050919050565b6000600560008473ffffffffffffffffffffffffffffffffffffffff1673ffffffffffffffffffffffffffffffffffffffff16815260200190815260200160002060008373ffffffffffffffffffffffffffffffffffffffff1673ffffffffffffffffffffffffffffffffffffffff16815260200190815260200160002060009054906101000a900460ff16905092915050565b600d60009054906101000a900473ffffffffffffffffffffffffffffffffffffffff1681565b60005b815181101561203b57611e846007612595565b6000611e9060076125ab565b9050611e9c84826126d3565b611ee681848481518110611ed9577f4e487b7100000000000000000000000000000000000000000000000000000000600052603260045260246000fd5b60200260200101516128a1565b600e60003373ffffffffffffffffffffffffffffffffffffffff1673ffffffffffffffffffffffffffffffffffffffff1681526020019081526020016000208190806001815401808255809150506001900390600052602060002001600090919091909150556000600e60003373ffffffffffffffffffffffffffffffffffffffff1673ffffffffffffffffffffffffffffffffffffffff16815260200190815260200160002080549050905080600f6000848152602001908152602001600020819055507fe678c8da3d2d6082f140bbbaa1ee822f0c7072ab604536db4a3e0315f8a9277633858581518110612006577f4e487b7100000000000000000000000000000000000000000000000000000000600052603260045260246000fd5b60200260200101518460405161201e93929190613de5565b60405180910390a15050808061203390614538565b915050611e71565b505050565b60088060000154905081565b60007f80ac58cd000000000000000000000000000000000000000000000000000000007bffffffffffffffffffffffffffffffffffffffffffffffffffffffff1916827bffffffffffffffffffffffffffffffffffffffffffffffffffffffff1916148061211757507f5b5e139f000000000000000000000000000000000000000000000000000000007bffffffffffffffffffffffffffffffffffffffffffffffffffffffff1916827bffffffffffffffffffffffffffffffffffffffffffffffffffffffff1916145b80612127575061212682612915565b5b9050919050565b60008073ffffffffffffffffffffffffffffffffffffffff166002600084815260200190815260200160002060009054906101000a900473ffffffffffffffffffffffffffffffffffffffff1673ffffffffffffffffffffffffffffffffffffffff1614159050919050565b600033905090565b816004600083815260200190815260200160002060006101000a81548173ffffffffffffffffffffffffffffffffffffffff021916908373ffffffffffffffffffffffffffffffffffffffff160217905550808273ffffffffffffffffffffffffffffffffffffffff166122158361120e565b73ffffffffffffffffffffffffffffffffffffffff167f8c5be1e5ebec7d5bd14f71427d1e84f3dd0314c0f7b2291e5b200ac8c7c3b92560405160405180910390a45050565b60006122668261212e565b6122a5576040517f08c379a000000000000000000000000000000000000000000000000000000000815260040161229c90613fef565b60405180910390fd5b60006122b08361120e565b90508073ffffffffffffffffffffffffffffffffffffffff168473ffffffffffffffffffffffffffffffffffffffff16148061231f57508373ffffffffffffffffffffffffffffffffffffffff16612307846107bf565b73ffffffffffffffffffffffffffffffffffffffff16145b80612330575061232f8185611db4565b5b91505092915050565b8273ffffffffffffffffffffffffffffffffffffffff166123598261120e565b73ffffffffffffffffffffffffffffffffffffffff16146123af576040517f08c379a00000000000000000000000000000000000000000000000000000000081526004016123a6906140ef565b60405180910390fd5b600073ffffffffffffffffffffffffffffffffffffffff168273ffffffffffffffffffffffffffffffffffffffff16141561241f576040517f08c379a000000000000000000000000000000000000000000000000000000000815260040161241690613faf565b60405180910390fd5b61242a83838361297f565b6124356000826121a2565b6001600360008573ffffffffffffffffffffffffffffffffffffffff1673ffffffffffffffffffffffffffffffffffffffff168152602001908152602001600020600082825461248591906143e9565b925050819055506001600360008473ffffffffffffffffffffffffffffffffffffffff1673ffffffffffffffffffffffffffffffffffffffff16815260200190815260200160002060008282546124dc9190614362565b92505081905550816002600083815260200190815260200160002060006101000a81548173ffffffffffffffffffffffffffffffffffffffff021916908373ffffffffffffffffffffffffffffffffffffffff160217905550808273ffffffffffffffffffffffffffffffffffffffff168473ffffffffffffffffffffffffffffffffffffffff167fddf252ad1be2c89b69c2b068fc378daa952ba7f163c4a11628f55a4df523b3ef60405160405180910390a4505050565b6001816000016000828254019250508190555050565b600081600001549050919050565b6125c4848484612339565b6125d084848484612984565b61260f576040517f08c379a000000000000000000000000000000000000000000000000000000000815260040161260690613f4f565b60405180910390fd5b50505050565b606060405180602001604052806000815250905090565b60606126378261212e565b612676576040517f08c379a000000000000000000000000000000000000000000000000000000000815260040161266d9061410f565b60405180910390fd5b6000612680612615565b905060008151116126a057604051806020016040528060008152506126cb565b806126aa84612b1b565b6040516020016126bb929190613d23565b6040516020818303038152906040525b915050919050565b600073ffffffffffffffffffffffffffffffffffffffff168273ffffffffffffffffffffffffffffffffffffffff161415612743576040517f08c379a000000000000000000000000000000000000000000000000000000000815260040161273a9061408f565b60405180910390fd5b61274c8161212e565b1561278c576040517f08c379a000000000000000000000000000000000000000000000000000000000815260040161278390613f6f565b60405180910390fd5b6127986000838361297f565b6001600360008473ffffffffffffffffffffffffffffffffffffffff1673ffffffffffffffffffffffffffffffffffffffff16815260200190815260200160002060008282546127e89190614362565b92505081905550816002600083815260200190815260200160002060006101000a81548173ffffffffffffffffffffffffffffffffffffffff021916908373ffffffffffffffffffffffffffffffffffffffff160217905550808273ffffffffffffffffffffffffffffffffffffffff16600073ffffffffffffffffffffffffffffffffffffffff167fddf252ad1be2c89b69c2b068fc378daa952ba7f163c4a11628f55a4df523b3ef60405160405180910390a45050565b6128aa8261212e565b6128e9576040517f08c379a00000000000000000000000000000000000000000000000000000000081526004016128e09061406f565b60405180910390fd5b80600660008481526020019081526020016000209080519060200190612910929190612cdb565b505050565b60007f01ffc9a7000000000000000000000000000000000000000000000000000000007bffffffffffffffffffffffffffffffffffffffffffffffffffffffff1916827bffffffffffffffffffffffffffffffffffffffffffffffffffffffff1916149050919050565b505050565b60006129a58473ffffffffffffffffffffffffffffffffffffffff16612cc8565b15612b0e578373ffffffffffffffffffffffffffffffffffffffff1663150b7a026129ce61219a565b8786866040518563ffffffff1660e01b81526004016129f09493929190613d99565b602060405180830381600087803b158015612a0a57600080fd5b505af1925050508015612a3b57506040513d601f19601f82011682018060405250810190612a3891906133b8565b60015b612abe573d8060008114612a6b576040519150601f19603f3d011682016040523d82523d6000602084013e612a70565b606091505b50600081511415612ab6576040517f08c379a0000000000000000000000000000000000000000000000000000000008152600401612aad90613f4f565b60405180910390fd5b805181602001fd5b63150b7a0260e01b7bffffffffffffffffffffffffffffffffffffffffffffffffffffffff1916817bffffffffffffffffffffffffffffffffffffffffffffffffffffffff191614915050612b13565b600190505b949350505050565b60606000821415612b63576040518060400160405280600181526020017f30000000000000000000000000000000000000000000000000000000000000008152509050612cc3565b600082905060005b60008214612b95578080612b7e90614538565b915050600a82612b8e91906143b8565b9150612b6b565b60008167ffffffffffffffff811115612bd7577f4e487b7100000000000000000000000000000000000000000000000000000000600052604160045260246000fd5b6040519080825280601f01601f191660200182016040528015612c095781602001600182028036833780820191505090505b5090505b60008514612cbc57600182612c2291906143e9565b9150600a85612c319190614581565b6030612c3d9190614362565b60f81b818381518110612c79577f4e487b7100000000000000000000000000000000000000000000000000000000600052603260045260246000fd5b60200101907effffffffffffffffffffffffffffffffffffffffffffffffffffffffffffff1916908160001a905350600a85612cb591906143b8565b9450612c0d565b8093505050505b919050565b600080823b905060008111915050919050565b828054612ce790614506565b90600052602060002090601f016020900481019282612d095760008555612d50565b82601f10612d2257805160ff1916838001178555612d50565b82800160010185558215612d50579182015b82811115612d4f578251825591602001919060010190612d34565b5b509050612d5d9190612d61565b5090565b5b80821115612d7a576000816000905550600101612d62565b5090565b6000612d91612d8c846141e4565b6141b3565b9050808382526020820190508260005b85811015612dd15781358501612db78882613029565b845260208401935060208301925050600181019050612da1565b5050509392505050565b6000612dee612de984614210565b6141b3565b90508083825260208201905082856020860282011115612e0d57600080fd5b60005b85811015612e3d5781612e238882613053565b845260208401935060208301925050600181019050612e10565b5050509392505050565b6000612e5a612e558461423c565b6141b3565b905082815260208101848484011115612e7257600080fd5b612e7d8482856144c4565b509392505050565b6000612e98612e938461426c565b6141b3565b905082815260208101848484011115612eb057600080fd5b612ebb8482856144c4565b509392505050565b600081359050612ed2816146c2565b92915050565b60008083601f840112612eea57600080fd5b8235905067ffffffffffffffff811115612f0357600080fd5b602083019150836020820283011115612f1b57600080fd5b9250929050565b600082601f830112612f3357600080fd5b8135612f43848260208601612d7e565b91505092915050565b600082601f830112612f5d57600080fd5b8135612f6d848260208601612ddb565b91505092915050565b600081359050612f85816146d9565b92915050565b600081359050612f9a816146f0565b92915050565b600081519050612faf816146f0565b92915050565b60008083601f840112612fc757600080fd5b8235905067ffffffffffffffff811115612fe057600080fd5b602083019150836001820283011115612ff857600080fd5b9250929050565b600082601f83011261301057600080fd5b8135613020848260208601612e47565b91505092915050565b600082601f83011261303a57600080fd5b813561304a848260208601612e85565b91505092915050565b60008135905061306281614707565b92915050565b60006020828403121561307a57600080fd5b600061308884828501612ec3565b91505092915050565b600080604083850312156130a457600080fd5b60006130b285828601612ec3565b92505060206130c385828601612ec3565b9150509250929050565b6000806000606084860312156130e257600080fd5b60006130f086828701612ec3565b935050602061310186828701612ec3565b925050604061311286828701613053565b9150509250925092565b60008060008060006080868803121561313457600080fd5b600061314288828901612ec3565b955050602061315388828901612ec3565b945050604061316488828901613053565b935050606086013567ffffffffffffffff81111561318157600080fd5b61318d88828901612fb5565b92509250509295509295909350565b600080600080608085870312156131b257600080fd5b60006131c087828801612ec3565b94505060206131d187828801612ec3565b93505060406131e287828801613053565b925050606085013567ffffffffffffffff8111156131ff57600080fd5b61320b87828801612fff565b91505092959194509250565b6000806040838503121561322a57600080fd5b600061323885828601612ec3565b925050602083013567ffffffffffffffff81111561325557600080fd5b61326185828601612f22565b9150509250929050565b60008060006060848603121561328057600080fd5b600061328e86828701612ec3565b935050602084013567ffffffffffffffff8111156132ab57600080fd5b6132b786828701612f4c565b92505060406132c886828701612ec3565b9150509250925092565b600080604083850312156132e557600080fd5b60006132f385828601612ec3565b925050602061330485828601612f76565b9150509250929050565b6000806040838503121561332157600080fd5b600061332f85828601612ec3565b925050602061334085828601613053565b9150509250929050565b6000806020838503121561335d57600080fd5b600083013567ffffffffffffffff81111561337757600080fd5b61338385828601612ed8565b92509250509250929050565b6000602082840312156133a157600080fd5b60006133af84828501612f8b565b91505092915050565b6000602082840312156133ca57600080fd5b60006133d884828501612fa0565b91505092915050565b6000602082840312156133f357600080fd5b600061340184828501613053565b91505092915050565b60006134168383613c84565b905092915050565b600061342a8383613d05565b60208301905092915050565b61343f8161441d565b82525050565b61344e8161441d565b82525050565b600061345f826142bc565b6134698185614302565b93508360208202850161347b8561429c565b8060005b858110156134b75784840389528151613498858261340a565b94506134a3836142e8565b925060208a0199505060018101905061347f565b50829750879550505050505092915050565b60006134d4826142c7565b6134de8185614313565b93506134e9836142ac565b8060005b8381101561351a578151613501888261341e565b975061350c836142f5565b9250506001810190506134ed565b5085935050505092915050565b6135308161442f565b82525050565b61353f8161443b565b82525050565b6000613550826142d2565b61355a8185614324565b935061356a8185602086016144d3565b6135738161469d565b840191505092915050565b613587816144b2565b82525050565b6000613598826142dd565b6135a28185614335565b93506135b28185602086016144d3565b6135bb8161469d565b840191505092915050565b60006135d1826142dd565b6135db8185614346565b93506135eb8185602086016144d3565b6135f48161469d565b840191505092915050565b600061360a826142dd565b6136148185614357565b93506136248185602086016144d3565b80840191505092915050565b600061363d603283614346565b91507f4552433732313a207472616e7366657220746f206e6f6e20455243373231526560008301527f63656976657220696d706c656d656e74657200000000000000000000000000006020830152604082019050919050565b60006136a3601c83614346565b91507f4552433732313a20746f6b656e20616c7265616479206d696e746564000000006000830152602082019050919050565b60006136e3603283614346565b91507f596f7520617265206e6f742077686974656c6973746564207c20596f7520686160008301527f766520616c726561647920636c61696d656400000000000000000000000000006020830152604082019050919050565b6000613749602483614346565b91507f4552433732313a207472616e7366657220746f20746865207a65726f2061646460008301527f72657373000000000000000000000000000000000000000000000000000000006020830152604082019050919050565b60006137af601983614346565b91507f4552433732313a20617070726f766520746f2063616c6c6572000000000000006000830152602082019050919050565b60006137ef602c83614346565b91507f4552433732313a206f70657261746f7220717565727920666f72206e6f6e657860008301527f697374656e7420746f6b656e00000000000000000000000000000000000000006020830152604082019050919050565b6000613855603883614346565b91507f4552433732313a20617070726f76652063616c6c6572206973206e6f74206f7760008301527f6e6572206e6f7220617070726f76656420666f7220616c6c00000000000000006020830152604082019050919050565b60006138bb602a83614346565b91507f4552433732313a2062616c616e636520717565727920666f7220746865207a6560008301527f726f2061646472657373000000000000000000000000000000000000000000006020830152604082019050919050565b6000613921602983614346565b91507f4552433732313a206f776e657220717565727920666f72206e6f6e657869737460008301527f656e7420746f6b656e00000000000000000000000000000000000000000000006020830152604082019050919050565b6000613987602e83614346565b91507f45524337323155524953746f726167653a2055524920736574206f66206e6f6e60008301527f6578697374656e7420746f6b656e0000000000000000000000000000000000006020830152604082019050919050565b60006139ed602083614346565b91507f4552433732313a206d696e7420746f20746865207a65726f20616464726573736000830152602082019050919050565b6000613a2d603183614346565b91507f45524337323155524953746f726167653a2055524920717565727920666f722060008301527f6e6f6e6578697374656e7420746f6b656e0000000000000000000000000000006020830152604082019050919050565b6000613a93602c83614346565b91507f4552433732313a20617070726f76656420717565727920666f72206e6f6e657860008301527f697374656e7420746f6b656e00000000000000000000000000000000000000006020830152604082019050919050565b6000613af9602983614346565b91507f4552433732313a207472616e73666572206f6620746f6b656e2074686174206960008301527f73206e6f74206f776e00000000000000000000000000000000000000000000006020830152604082019050919050565b6000613b5f602f83614346565b91507f4552433732314d657461646174613a2055524920717565727920666f72206e6f60008301527f6e6578697374656e7420746f6b656e00000000000000000000000000000000006020830152604082019050919050565b6000613bc5602183614346565b91507f4552433732313a20617070726f76616c20746f2063757272656e74206f776e6560008301527f72000000000000000000000000000000000000000000000000000000000000006020830152604082019050919050565b6000613c2b603183614346565b91507f4552433732313a207472616e736665722063616c6c6572206973206e6f74206f60008301527f776e6572206e6f7220617070726f7665640000000000000000000000000000006020830152604082019050919050565b6000608083016000830151613c9c6000860182613436565b506020830151613caf6020860182613d05565b506040830151613cc26040860182613ce7565b5060608301518482036060860152613cda828261358d565b9150508091505092915050565b613cf08161447a565b82525050565b613cff8161447a565b82525050565b613d0e816144a8565b82525050565b613d1d816144a8565b82525050565b6000613d2f82856135ff565b9150613d3b82846135ff565b91508190509392505050565b6000602082019050613d5c6000830184613445565b92915050565b6000606082019050613d776000830186613445565b613d846020830185613445565b613d916040830184613d14565b949350505050565b6000608082019050613dae6000830187613445565b613dbb6020830186613445565b613dc86040830185613d14565b8181036060830152613dda8184613545565b905095945050505050565b6000606082019050613dfa6000830186613445565b8181036020830152613e0c81856135c6565b9050613e1b6040830184613d14565b949350505050565b6000604082019050613e386000830185613445565b613e456020830184613d14565b9392505050565b6000608082019050613e616000830187613445565b613e6e6020830186613d14565b613e7b6040830185613cf6565b8181036060830152613e8d81846135c6565b905095945050505050565b60006020820190508181036000830152613eb28184613454565b905092915050565b60006020820190508181036000830152613ed481846134c9565b905092915050565b6000602082019050613ef16000830184613527565b92915050565b6000602082019050613f0c6000830184613536565b92915050565b6000602082019050613f27600083018461357e565b92915050565b60006020820190508181036000830152613f4781846135c6565b905092915050565b60006020820190508181036000830152613f6881613630565b9050919050565b60006020820190508181036000830152613f8881613696565b9050919050565b60006020820190508181036000830152613fa8816136d6565b9050919050565b60006020820190508181036000830152613fc88161373c565b9050919050565b60006020820190508181036000830152613fe8816137a2565b9050919050565b60006020820190508181036000830152614008816137e2565b9050919050565b6000602082019050818103600083015261402881613848565b9050919050565b60006020820190508181036000830152614048816138ae565b9050919050565b6000602082019050818103600083015261406881613914565b9050919050565b600060208201905081810360008301526140888161397a565b9050919050565b600060208201905081810360008301526140a8816139e0565b9050919050565b600060208201905081810360008301526140c881613a20565b9050919050565b600060208201905081810360008301526140e881613a86565b9050919050565b6000602082019050818103600083015261410881613aec565b9050919050565b6000602082019050818103600083015261412881613b52565b9050919050565b6000602082019050818103600083015261414881613bb8565b9050919050565b6000602082019050818103600083015261416881613c1e565b9050919050565b60006020820190506141846000830184613d14565b92915050565b600060408201905061419f6000830185613d14565b6141ac602083018461357e565b9392505050565b6000604051905081810181811067ffffffffffffffff821117156141da576141d961466e565b5b8060405250919050565b600067ffffffffffffffff8211156141ff576141fe61466e565b5b602082029050602081019050919050565b600067ffffffffffffffff82111561422b5761422a61466e565b5b602082029050602081019050919050565b600067ffffffffffffffff8211156142575761425661466e565b5b601f19601f8301169050602081019050919050565b600067ffffffffffffffff8211156142875761428661466e565b5b601f19601f8301169050602081019050919050565b6000819050602082019050919050565b6000819050602082019050919050565b600081519050919050565b600081519050919050565b600081519050919050565b600081519050919050565b6000602082019050919050565b6000602082019050919050565b600082825260208201905092915050565b600082825260208201905092915050565b600082825260208201905092915050565b600082825260208201905092915050565b600082825260208201905092915050565b600081905092915050565b600061436d826144a8565b9150614378836144a8565b9250827fffffffffffffffffffffffffffffffffffffffffffffffffffffffffffffffff038211156143ad576143ac6145b2565b5b828201905092915050565b60006143c3826144a8565b91506143ce836144a8565b9250826143de576143dd6145e1565b5b828204905092915050565b60006143f4826144a8565b91506143ff836144a8565b925082821015614412576144116145b2565b5b828203905092915050565b600061442882614488565b9050919050565b60008115159050919050565b60007fffffffff0000000000000000000000000000000000000000000000000000000082169050919050565b6000819050614475826146ae565b919050565b600061ffff82169050919050565b600073ffffffffffffffffffffffffffffffffffffffff82169050919050565b6000819050919050565b60006144bd82614467565b9050919050565b82818337600083830152505050565b60005b838110156144f15780820151818401526020810190506144d6565b83811115614500576000848401525b50505050565b6000600282049050600182168061451e57607f821691505b602082108114156145325761453161463f565b5b50919050565b6000614543826144a8565b91507fffffffffffffffffffffffffffffffffffffffffffffffffffffffffffffffff821415614576576145756145b2565b5b600182019050919050565b600061458c826144a8565b9150614597836144a8565b9250826145a7576145a66145e1565b5b828206905092915050565b7f4e487b7100000000000000000000000000000000000000000000000000000000600052601160045260246000fd5b7f4e487b7100000000000000000000000000000000000000000000000000000000600052601260045260246000fd5b7f4e487b7100000000000000000000000000000000000000000000000000000000600052602160045260246000fd5b7f4e487b7100000000000000000000000000000000000000000000000000000000600052602260045260246000fd5b7f4e487b7100000000000000000000000000000000000000000000000000000000600052604160045260246000fd5b6000601f19601f8301169050919050565b600481106146bf576146be614610565b5b50565b6146cb8161441d565b81146146d657600080fd5b50565b6146e28161442f565b81146146ed57600080fd5b50565b6146f98161443b565b811461470457600080fd5b50565b614710816144a8565b811461471b57600080fd5b5056fea26469706673582212204beddb8e8305583fee334e7bcae51b8ad5dd6ed405a2bd09879b7dadd860b32764736f6c63430008000033",
  "immutableReferences": {},
  "source": "//SPDX-License-Identifier: UNLICENSED\npragma solidity ^0.8.0;\n\nimport \"@openzeppelin/contracts/token/ERC721/ERC721.sol\";\nimport \"@openzeppelin/contracts/token/ERC721/extensions/ERC721URIStorage.sol\";\nimport \"@openzeppelin/contracts/utils/Counters.sol\";\nimport \"@openzeppelin/contracts/token/ERC721/IERC721Receiver.sol\";\n\ncontract QlipMarketPlace is ERC721URIStorage, IERC721Receiver {\n    using Counters for Counters.Counter;\n    Counters.Counter public _tokenIds;\n    Counters.Counter public _claimedTokens;\n    mapping(uint256 => uint256) private itemIndex;\n    mapping(uint256 => uint256) private salePrice;\n    mapping(uint256 => NFTDet) public TokenDetails;\n    mapping(uint256 => NFTStateMapping) public NFTSTates;\n    address public admin;\n\n    //Tracke user owned NFTs\n    mapping(address => uint256[]) public userOwnedTokens;\n    mapping(uint256 => uint256) public tokenIsAtIndex;\n\n    enum NFTState {\n        MINTED,\n        ONSALE,\n        SOLD,\n        ARCHIVED\n    }\n\n    struct NFTDet {\n        address ownerAddress;\n        uint256 _id;\n        uint16 _category;\n        string tokenURI_;\n    }\n\n    struct NFTStateMapping {\n        uint256 tokenId;\n        NFTState nftState;\n    }\n\n    mapping(address => bool) QLIPMinters;\n    mapping(uint256 => address) nftOwners;\n\n    NFTDet[] public qlipNFTs;\n    NFTStateMapping[] public nftStates;\n    NFTDet[] public allTokens;\n    address[] NFTClaimers;\n    //Mapping value = 1 indicates they have been added to the whitelist, 2 indicates they have claimed\n    mapping(address => uint256) whitelistedAddresses;\n\n    event Minted(address minter, string tokenURI, uint256 tokenId);\n    event Transfer(address receiver, uint256 tokenId);\n\n    modifier onlyAdmin() {\n        require(msg.sender == admin);\n        _;\n    }\n\n    constructor(string memory _name, string memory _symbol)\n        ERC721(_name, _symbol)\n    {\n        admin = msg.sender;\n    }\n\n    function supportsInterface(bytes4 interfaceId)\n        public\n        view\n        virtual\n        override(ERC721)\n        returns (bool)\n    {\n        return super.supportsInterface(interfaceId);\n    }\n\n    function whiteListClaimAddress(address[] calldata claimers)\n        public\n        onlyAdmin\n    {\n        for (uint256 i = 0; i < claimers.length; i++) {\n            whitelistedAddresses[claimers[i]] = 1;\n        }\n    }\n\n    function onERC721Received(\n        address operator,\n        address from,\n        uint256 tokenId,\n        bytes calldata data\n    ) public pure override returns (bytes4) {\n        return (\n            bytes4(keccak256(\"onERC721Received(address,address,uint256,bytes)\"))\n        );\n    }\n\n    //Function for private sale investors and team to claim the Beningin NFTs\n    function claimNFTs(address _nftAddress) public {\n        //Start allocating the NFTs from token ID 1-x based on which address claims when\n        require(\n            whitelistedAddresses[msg.sender] == 1,\n            \"You are not whitelisted | You have already claimed\"\n        );\n        ERC721 nftAddress = ERC721(_nftAddress);\n        _claimedTokens.increment();\n        uint256 tokenId = _claimedTokens.current();\n        nftAddress.safeTransferFrom(address(this), msg.sender, tokenId);\n        emit Transfer(msg.sender, tokenId);\n        //Getting the next NFT of type-2\n        tokenId = _claimedTokens.current() + 100;\n        nftAddress.safeTransferFrom(address(this), msg.sender, tokenId);\n        emit Transfer(msg.sender, tokenId);\n        //Getting the next NFT of type-3\n        tokenId = _claimedTokens.current() + 200;\n        nftAddress.safeTransferFrom(address(this), msg.sender, tokenId);\n        emit Transfer(msg.sender, tokenId);\n    }\n\n    function mintWithIndex(address to, string[] memory tokenURI) public {\n        for (uint256 i = 0; i < tokenURI.length; i++) {\n            _tokenIds.increment();\n            uint256 tokenId = _tokenIds.current();\n\n            _mint(to, tokenId);\n            _setTokenURI(tokenId, tokenURI[i]);\n\n            //Update user owned tokens\n            userOwnedTokens[msg.sender].push(tokenId);\n            uint256 arrayLength = userOwnedTokens[msg.sender].length;\n            tokenIsAtIndex[tokenId] = arrayLength;\n\n            emit Minted(msg.sender, tokenURI[i], tokenId);\n        }\n    }\n\n    /**\n     * @dev See {IERC721-safeTransferFrom}.\n     */\n    function safeTransferFrom(\n        address from,\n        address to,\n        uint256 tokenId,\n        bytes memory _data\n    ) public virtual override {\n        require(\n            _isApprovedOrOwner(_msgSender(), tokenId),\n            \"ERC721: transfer caller is not owner nor approved\"\n        );\n        _safeTransfer(from, to, tokenId, _data);\n\n        //Remove token in from owned tokens\n        uint256 tokenIndex = tokenIsAtIndex[tokenId];\n        uint256[] storage owned = userOwnedTokens[from];\n\n        owned[tokenIndex - 1] = owned[owned.length - 1]; //Replace token position with last position\n        owned.pop(); //Pop last position to avoid duplicate\n    }\n\n    function transferBeningin(\n        address receiver,\n        uint256[] memory tokenIds,\n        address _nftAddress\n    ) public onlyAdmin {\n        ERC721 nftAddress = ERC721(_nftAddress);\n        for (uint256 i = 0; i < tokenIds.length; i++) {\n            nftAddress.safeTransferFrom(address(this), receiver, tokenIds[i]);\n            emit Transfer(receiver, tokenIds[i]);\n        }\n    }\n\n    function getAllTokens() public view returns (NFTDet[] memory) {\n        return allTokens;\n    }\n\n    /*\n     * @deprecated\n     */\n    function __getNftByAddress(address _nftAddress)\n        public\n        view\n        returns (uint256[] memory)\n    {\n        address userAddress = _nftAddress;\n        uint256[] memory userTokens;\n        uint256 j = 0;\n        for (uint256 i = 0; i < allTokens.length; i++) {\n            if (ownerOf(allTokens[i]._id) == userAddress) {\n                userTokens[j] = allTokens[i]._id;\n                j += 1;\n            }\n        }\n\n        return userTokens;\n    }\n\n    function getNftByAddress(address _nftAddress)\n        public\n        view\n        returns (uint256[] memory)\n    {\n        return userOwnedTokens[_nftAddress];\n    }\n\n    function getNFTState(uint256 tokenId) public view returns (NFTState) {\n        return NFTSTates[tokenId].nftState;\n    }\n\n    function isQLIPMinted(address owner) public view returns (bool) {\n        if (QLIPMinters[owner] == true) {\n            return true;\n        } else {\n            return false;\n        }\n    }\n}\n",
  "sourcePath": "/Users/drewhyte/Sites/BLOCKCHAIN/qlip-marketplace/contracts/QlipMarketPlace.sol",
  "compiler": {
    "name": "solc",
    "version": "0.8.0+commit.c7dfd78e.Emscripten.clang"
  },
  "schemaVersion": "3.4.3",
  "updatedAt": "2021-10-10T23:31:45.481Z",
  "devdoc": {
    "kind": "dev",
    "methods": {
      "approve(address,uint256)": {
        "details": "See {IERC721-approve}."
      },
      "balanceOf(address)": {
        "details": "See {IERC721-balanceOf}."
      },
      "getApproved(uint256)": {
        "details": "See {IERC721-getApproved}."
      },
      "isApprovedForAll(address,address)": {
        "details": "See {IERC721-isApprovedForAll}."
      },
      "name()": {
        "details": "See {IERC721Metadata-name}."
      },
      "onERC721Received(address,address,uint256,bytes)": {
        "details": "Whenever an {IERC721} `tokenId` token is transferred to this contract via {IERC721-safeTransferFrom} by `operator` from `from`, this function is called. It must return its Solidity selector to confirm the token transfer. If any other value is returned or the interface is not implemented by the recipient, the transfer will be reverted. The selector can be obtained in Solidity with `IERC721.onERC721Received.selector`."
      },
      "ownerOf(uint256)": {
        "details": "See {IERC721-ownerOf}."
      },
      "safeTransferFrom(address,address,uint256)": {
        "details": "See {IERC721-safeTransferFrom}."
      },
      "safeTransferFrom(address,address,uint256,bytes)": {
        "details": "See {IERC721-safeTransferFrom}."
      },
      "setApprovalForAll(address,bool)": {
        "details": "See {IERC721-setApprovalForAll}."
      },
      "supportsInterface(bytes4)": {
        "details": "See {IERC165-supportsInterface}."
      },
      "symbol()": {
        "details": "See {IERC721Metadata-symbol}."
      },
      "tokenURI(uint256)": {
        "details": "See {IERC721Metadata-tokenURI}."
      },
      "transferFrom(address,address,uint256)": {
        "details": "See {IERC721-transferFrom}."
      }
    },
    "version": 1
  },
  "userdoc": {
    "kind": "user",
    "methods": {},
    "version": 1
  }
}