{
  "contractName": "QLIPITMarketplace",
  "abi": [
    {
      "inputs": [
        {
          "internalType": "string",
          "name": "_name",
          "type": "string"
        },
        {
          "internalType": "string",
          "name": "_symbol",
          "type": "string"
        }
      ],
      "stateMutability": "nonpayable",
      "type": "constructor"
    },
    {
      "anonymous": false,
      "inputs": [
        {
          "indexed": true,
          "internalType": "address",
          "name": "owner",
          "type": "address"
        },
        {
          "indexed": true,
          "internalType": "address",
          "name": "approved",
          "type": "address"
        },
        {
          "indexed": true,
          "internalType": "uint256",
          "name": "tokenId",
          "type": "uint256"
        }
      ],
      "name": "Approval",
      "type": "event"
    },
    {
      "anonymous": false,
      "inputs": [
        {
          "indexed": true,
          "internalType": "address",
          "name": "owner",
          "type": "address"
        },
        {
          "indexed": true,
          "internalType": "address",
          "name": "operator",
          "type": "address"
        },
        {
          "indexed": false,
          "internalType": "bool",
          "name": "approved",
          "type": "bool"
        }
      ],
      "name": "ApprovalForAll",
      "type": "event"
    },
    {
      "anonymous": false,
      "inputs": [
        {
          "indexed": false,
          "internalType": "address",
          "name": "seller",
          "type": "address"
        },
        {
          "indexed": false,
          "internalType": "address",
          "name": "buyer",
          "type": "address"
        },
        {
          "indexed": false,
          "internalType": "uint256",
          "name": "tokenId",
          "type": "uint256"
        }
      ],
      "name": "BuyToken",
      "type": "event"
    },
    {
      "anonymous": false,
      "inputs": [
        {
          "indexed": false,
          "internalType": "address",
          "name": "minter",
          "type": "address"
        },
        {
          "indexed": false,
          "internalType": "string",
          "name": "tokenURI",
          "type": "string"
        },
        {
          "indexed": false,
          "internalType": "uint256",
          "name": "tokenId",
          "type": "uint256"
        }
      ],
      "name": "Minted",
      "type": "event"
    },
    {
      "anonymous": false,
      "inputs": [
        {
          "indexed": false,
          "internalType": "address",
          "name": "seller",
          "type": "address"
        },
        {
          "indexed": false,
          "internalType": "uint256",
          "name": "tokenId",
          "type": "uint256"
        }
      ],
      "name": "SetSale",
      "type": "event"
    },
    {
      "anonymous": false,
      "inputs": [
        {
          "indexed": true,
          "internalType": "address",
          "name": "from",
          "type": "address"
        },
        {
          "indexed": true,
          "internalType": "address",
          "name": "to",
          "type": "address"
        },
        {
          "indexed": true,
          "internalType": "uint256",
          "name": "tokenId",
          "type": "uint256"
        }
      ],
      "name": "Transfer",
      "type": "event"
    },
    {
      "inputs": [
        {
          "internalType": "uint256",
          "name": "",
          "type": "uint256"
        }
      ],
      "name": "NFTSTates",
      "outputs": [
        {
          "internalType": "uint256",
          "name": "tokenId",
          "type": "uint256"
        },
        {
          "internalType": "enum QLIPITMarketplace.NFTState",
          "name": "nftState",
          "type": "uint8"
        }
      ],
      "stateMutability": "view",
      "type": "function"
    },
    {
      "inputs": [
        {
          "internalType": "uint256",
          "name": "",
          "type": "uint256"
        }
      ],
      "name": "TokenDetails",
      "outputs": [
        {
          "internalType": "address",
          "name": "ownerAddress",
          "type": "address"
        },
        {
          "internalType": "uint256",
          "name": "_id",
          "type": "uint256"
        },
        {
          "internalType": "uint16",
          "name": "_category",
          "type": "uint16"
        },
        {
          "internalType": "string",
          "name": "tokenURI_",
          "type": "string"
        }
      ],
      "stateMutability": "view",
      "type": "function"
    },
    {
      "inputs": [],
      "name": "_tokenIds",
      "outputs": [
        {
          "internalType": "uint256",
          "name": "_value",
          "type": "uint256"
        }
      ],
      "stateMutability": "view",
      "type": "function"
    },
    {
      "inputs": [],
      "name": "admin",
      "outputs": [
        {
          "internalType": "address",
          "name": "",
          "type": "address"
        }
      ],
      "stateMutability": "view",
      "type": "function"
    },
    {
      "inputs": [
        {
          "internalType": "uint256",
          "name": "",
          "type": "uint256"
        }
      ],
      "name": "allTokens",
      "outputs": [
        {
          "internalType": "address",
          "name": "ownerAddress",
          "type": "address"
        },
        {
          "internalType": "uint256",
          "name": "_id",
          "type": "uint256"
        },
        {
          "internalType": "uint16",
          "name": "_category",
          "type": "uint16"
        },
        {
          "internalType": "string",
          "name": "tokenURI_",
          "type": "string"
        }
      ],
      "stateMutability": "view",
      "type": "function"
    },
    {
      "inputs": [
        {
          "internalType": "address",
          "name": "to",
          "type": "address"
        },
        {
          "internalType": "uint256",
          "name": "tokenId",
          "type": "uint256"
        }
      ],
      "name": "approve",
      "outputs": [],
      "stateMutability": "nonpayable",
      "type": "function"
    },
    {
      "inputs": [
        {
          "internalType": "address",
          "name": "owner",
          "type": "address"
        }
      ],
      "name": "balanceOf",
      "outputs": [
        {
          "internalType": "uint256",
          "name": "",
          "type": "uint256"
        }
      ],
      "stateMutability": "view",
      "type": "function"
    },
    {
      "inputs": [
        {
          "internalType": "uint256",
          "name": "tokenId",
          "type": "uint256"
        }
      ],
      "name": "getApproved",
      "outputs": [
        {
          "internalType": "address",
          "name": "",
          "type": "address"
        }
      ],
      "stateMutability": "view",
      "type": "function"
    },
    {
      "inputs": [
        {
          "internalType": "address",
          "name": "owner",
          "type": "address"
        },
        {
          "internalType": "address",
          "name": "operator",
          "type": "address"
        }
      ],
      "name": "isApprovedForAll",
      "outputs": [
        {
          "internalType": "bool",
          "name": "",
          "type": "bool"
        }
      ],
      "stateMutability": "view",
      "type": "function"
    },
    {
      "inputs": [],
      "name": "name",
      "outputs": [
        {
          "internalType": "string",
          "name": "",
          "type": "string"
        }
      ],
      "stateMutability": "view",
      "type": "function"
    },
    {
      "inputs": [
        {
          "internalType": "uint256",
          "name": "",
          "type": "uint256"
        }
      ],
      "name": "nftStates",
      "outputs": [
        {
          "internalType": "uint256",
          "name": "tokenId",
          "type": "uint256"
        },
        {
          "internalType": "enum QLIPITMarketplace.NFTState",
          "name": "nftState",
          "type": "uint8"
        }
      ],
      "stateMutability": "view",
      "type": "function"
    },
    {
      "inputs": [
        {
          "internalType": "uint256",
          "name": "tokenId",
          "type": "uint256"
        }
      ],
      "name": "ownerOf",
      "outputs": [
        {
          "internalType": "address",
          "name": "",
          "type": "address"
        }
      ],
      "stateMutability": "view",
      "type": "function"
    },
    {
      "inputs": [
        {
          "internalType": "uint256",
          "name": "",
          "type": "uint256"
        }
      ],
      "name": "qlipNFTs",
      "outputs": [
        {
          "internalType": "address",
          "name": "ownerAddress",
          "type": "address"
        },
        {
          "internalType": "uint256",
          "name": "_id",
          "type": "uint256"
        },
        {
          "internalType": "uint16",
          "name": "_category",
          "type": "uint16"
        },
        {
          "internalType": "string",
          "name": "tokenURI_",
          "type": "string"
        }
      ],
      "stateMutability": "view",
      "type": "function"
    },
    {
      "inputs": [
        {
          "internalType": "address",
          "name": "operator",
          "type": "address"
        },
        {
          "internalType": "bool",
          "name": "approved",
          "type": "bool"
        }
      ],
      "name": "setApprovalForAll",
      "outputs": [],
      "stateMutability": "nonpayable",
      "type": "function"
    },
    {
      "inputs": [],
      "name": "symbol",
      "outputs": [
        {
          "internalType": "string",
          "name": "",
          "type": "string"
        }
      ],
      "stateMutability": "view",
      "type": "function"
    },
    {
      "inputs": [
        {
          "internalType": "uint256",
          "name": "",
          "type": "uint256"
        }
      ],
      "name": "tokenIsAtIndex",
      "outputs": [
        {
          "internalType": "uint256",
          "name": "",
          "type": "uint256"
        }
      ],
      "stateMutability": "view",
      "type": "function"
    },
    {
      "inputs": [
        {
          "internalType": "uint256",
          "name": "tokenId",
          "type": "uint256"
        }
      ],
      "name": "tokenURI",
      "outputs": [
        {
          "internalType": "string",
          "name": "",
          "type": "string"
        }
      ],
      "stateMutability": "view",
      "type": "function"
    },
    {
      "inputs": [
        {
          "internalType": "address",
          "name": "from",
          "type": "address"
        },
        {
          "internalType": "address",
          "name": "to",
          "type": "address"
        },
        {
          "internalType": "uint256",
          "name": "tokenId",
          "type": "uint256"
        }
      ],
      "name": "transferFrom",
      "outputs": [],
      "stateMutability": "nonpayable",
      "type": "function"
    },
    {
      "inputs": [
        {
          "internalType": "address",
          "name": "",
          "type": "address"
        },
        {
          "internalType": "uint256",
          "name": "",
          "type": "uint256"
        }
      ],
      "name": "userOwnedTokens",
      "outputs": [
        {
          "internalType": "uint256",
          "name": "",
          "type": "uint256"
        }
      ],
      "stateMutability": "view",
      "type": "function"
    },
    {
      "inputs": [
        {
          "internalType": "bytes4",
          "name": "interfaceId",
          "type": "bytes4"
        }
      ],
      "name": "supportsInterface",
      "outputs": [
        {
          "internalType": "bool",
          "name": "",
          "type": "bool"
        }
      ],
      "stateMutability": "view",
      "type": "function"
    },
    {
      "inputs": [
        {
          "internalType": "address",
          "name": "qlipMinter",
          "type": "address"
        }
      ],
      "name": "whiteListQLIPMinters",
      "outputs": [],
      "stateMutability": "nonpayable",
      "type": "function"
    },
    {
      "inputs": [
        {
          "internalType": "address",
          "name": "operator",
          "type": "address"
        },
        {
          "internalType": "address",
          "name": "from",
          "type": "address"
        },
        {
          "internalType": "uint256",
          "name": "tokenId",
          "type": "uint256"
        },
        {
          "internalType": "bytes",
          "name": "data",
          "type": "bytes"
        }
      ],
      "name": "onERC721Received",
      "outputs": [
        {
          "internalType": "bytes4",
          "name": "",
          "type": "bytes4"
        }
      ],
      "stateMutability": "pure",
      "type": "function"
    },
    {
      "inputs": [
        {
          "internalType": "uint256",
          "name": "tokenId",
          "type": "uint256"
        },
        {
          "internalType": "uint256",
          "name": "price",
          "type": "uint256"
        },
        {
          "internalType": "address",
          "name": "_nftAddress",
          "type": "address"
        }
      ],
      "name": "setSale",
      "outputs": [],
      "stateMutability": "nonpayable",
      "type": "function"
    },
    {
      "inputs": [
        {
          "internalType": "uint256",
          "name": "tokenId",
          "type": "uint256"
        },
        {
          "internalType": "address",
          "name": "_nftAddress",
          "type": "address"
        }
      ],
      "name": "buyTokenOnSale",
      "outputs": [],
      "stateMutability": "payable",
      "type": "function"
    },
    {
      "inputs": [
        {
          "internalType": "address",
          "name": "to",
          "type": "address"
        },
        {
          "internalType": "string",
          "name": "tokenURI",
          "type": "string"
        },
        {
          "internalType": "uint16",
          "name": "_category",
          "type": "uint16"
        }
      ],
      "name": "mintWithIndex",
      "outputs": [],
      "stateMutability": "nonpayable",
      "type": "function"
    },
    {
      "inputs": [
        {
          "internalType": "address",
          "name": "from",
          "type": "address"
        },
        {
          "internalType": "address",
          "name": "to",
          "type": "address"
        },
        {
          "internalType": "uint256",
          "name": "tokenId",
          "type": "uint256"
        }
      ],
      "name": "safeTransferFrom",
      "outputs": [],
      "stateMutability": "nonpayable",
      "type": "function"
    },
    {
      "inputs": [
        {
          "internalType": "address",
          "name": "from",
          "type": "address"
        },
        {
          "internalType": "address",
          "name": "to",
          "type": "address"
        },
        {
          "internalType": "uint256",
          "name": "tokenId",
          "type": "uint256"
        },
        {
          "internalType": "bytes",
          "name": "_data",
          "type": "bytes"
        }
      ],
      "name": "safeTransferFrom",
      "outputs": [],
      "stateMutability": "nonpayable",
      "type": "function"
    },
    {
      "inputs": [
        {
          "internalType": "uint256",
          "name": "tokenId",
          "type": "uint256"
        }
      ],
      "name": "getSalePrice",
      "outputs": [
        {
          "internalType": "uint256",
          "name": "",
          "type": "uint256"
        }
      ],
      "stateMutability": "view",
      "type": "function"
    },
    {
      "inputs": [
        {
          "internalType": "uint256",
          "name": "tokenId",
          "type": "uint256"
        }
      ],
      "name": "__getAllTokenDetails",
      "outputs": [
        {
          "components": [
            {
              "internalType": "address",
              "name": "ownerAddress",
              "type": "address"
            },
            {
              "internalType": "uint256",
              "name": "_id",
              "type": "uint256"
            },
            {
              "internalType": "uint16",
              "name": "_category",
              "type": "uint16"
            },
            {
              "internalType": "string",
              "name": "tokenURI_",
              "type": "string"
            }
          ],
          "internalType": "struct QLIPITMarketplace.NFTDet",
          "name": "Details",
          "type": "tuple"
        }
      ],
      "stateMutability": "view",
      "type": "function"
    },
    {
      "inputs": [],
      "name": "getAllTokens",
      "outputs": [
        {
          "components": [
            {
              "internalType": "address",
              "name": "ownerAddress",
              "type": "address"
            },
            {
              "internalType": "uint256",
              "name": "_id",
              "type": "uint256"
            },
            {
              "internalType": "uint16",
              "name": "_category",
              "type": "uint16"
            },
            {
              "internalType": "string",
              "name": "tokenURI_",
              "type": "string"
            }
          ],
          "internalType": "struct QLIPITMarketplace.NFTDet[]",
          "name": "",
          "type": "tuple[]"
        }
      ],
      "stateMutability": "view",
      "type": "function"
    },
    {
      "inputs": [
        {
          "internalType": "address",
          "name": "_nftAddress",
          "type": "address"
        }
      ],
      "name": "__getNftByAddress",
      "outputs": [
        {
          "internalType": "uint256[]",
          "name": "",
          "type": "uint256[]"
        }
      ],
      "stateMutability": "view",
      "type": "function"
    },
    {
      "inputs": [
        {
          "internalType": "address",
          "name": "_nftAddress",
          "type": "address"
        }
      ],
      "name": "getNftByAddress",
      "outputs": [
        {
          "internalType": "uint256[]",
          "name": "",
          "type": "uint256[]"
        }
      ],
      "stateMutability": "view",
      "type": "function"
    },
    {
      "inputs": [
        {
          "internalType": "uint256",
          "name": "tokenId",
          "type": "uint256"
        }
      ],
      "name": "getNFTState",
      "outputs": [
        {
          "internalType": "enum QLIPITMarketplace.NFTState",
          "name": "",
          "type": "uint8"
        }
      ],
      "stateMutability": "view",
      "type": "function"
    },
    {
      "inputs": [
        {
          "internalType": "address",
          "name": "owner",
          "type": "address"
        }
      ],
      "name": "isQLIPMinted",
      "outputs": [
        {
          "internalType": "bool",
          "name": "",
          "type": "bool"
        }
      ],
      "stateMutability": "view",
      "type": "function"
    }
  ],
  "bytecode": "0x60806040523480156200001157600080fd5b5060405162005a8c38038062005a8c8339818101604052810190620000379190620001d8565b8181816000908051906020019062000051929190620000b6565b5080600190805190602001906200006a929190620000b6565b50505033600c60006101000a81548173ffffffffffffffffffffffffffffffffffffffff021916908373ffffffffffffffffffffffffffffffffffffffff16021790555050506200037c565b828054620000c490620002e8565b90600052602060002090601f016020900481019282620000e8576000855562000134565b82601f106200010357805160ff191683800117855562000134565b8280016001018555821562000134579182015b828111156200013357825182559160200191906001019062000116565b5b50905062000143919062000147565b5090565b5b808211156200016257600081600090555060010162000148565b5090565b60006200017d62000177846200027f565b6200024b565b9050828152602081018484840111156200019657600080fd5b620001a3848285620002b2565b509392505050565b600082601f830112620001bd57600080fd5b8151620001cf84826020860162000166565b91505092915050565b60008060408385031215620001ec57600080fd5b600083015167ffffffffffffffff8111156200020757600080fd5b6200021585828601620001ab565b925050602083015167ffffffffffffffff8111156200023357600080fd5b6200024185828601620001ab565b9150509250929050565b6000604051905081810181811067ffffffffffffffff821117156200027557620002746200034d565b5b8060405250919050565b600067ffffffffffffffff8211156200029d576200029c6200034d565b5b601f19601f8301169050602081019050919050565b60005b83811015620002d2578082015181840152602081019050620002b5565b83811115620002e2576000848401525b50505050565b600060028204905060018216806200030157607f821691505b602082108114156200031857620003176200031e565b5b50919050565b7f4e487b7100000000000000000000000000000000000000000000000000000000600052602260045260246000fd5b7f4e487b7100000000000000000000000000000000000000000000000000000000600052604160045260246000fd5b615700806200038c6000396000f3fe6080604052600436106101f95760003560e01c806370a082311161010d578063bdf72a75116100a0578063ceccf4a51161006f578063ceccf4a5146107fd578063e985e9c51461083a578063ee208b7814610877578063f851a440146108a0578063f8eb5fc5146108cb576101f9565b8063bdf72a751461071d578063c084065c1461075a578063c2f8331914610783578063c87b56dd146107c0576101f9565b8063a22cb465116100dc578063a22cb46514610684578063aa46a400146106ad578063b58b98e4146106d8578063b88d4fde146106f4576101f9565b806370a08231146105b55780637447bb04146105f25780639313d84f1461063057806395d89b4114610659576101f9565b806324f664a71161019057806361b5ca801161015f57806361b5ca8014610480578063634282af146104bd5780636352211e146104fd578063694e75ae1461053a5780636ff7405614610578576101f9565b806324f664a7146103ac5780632a5c792a146103ec578063369957021461041757806342842e0e14610457576101f9565b806314b924e2116101cc57806314b924e2146102cc578063150b7a02146103095780631ece83b01461034657806323b872dd14610383576101f9565b806301ffc9a7146101fe57806306fdde031461023b578063081812fc14610266578063095ea7b3146102a3575b600080fd5b34801561020a57600080fd5b50610225600480360381019061022091906140d6565b610908565b6040516102329190614dd7565b60405180910390f35b34801561024757600080fd5b5061025061091a565b60405161025d9190614e28565b60405180910390f35b34801561027257600080fd5b5061028d60048036038101906102889190614128565b6109ac565b60405161029a9190614c0b565b60405180910390f35b3480156102af57600080fd5b506102ca60048036038101906102c5919061409a565b610a31565b005b3480156102d857600080fd5b506102f360048036038101906102ee919061409a565b610b49565b60405161030091906150cc565b60405180910390f35b34801561031557600080fd5b50610330600480360381019061032b9190613efc565b610b7a565b60405161033d9190614df2565b60405180910390f35b34801561035257600080fd5b5061036d60048036038101906103689190614128565b610ba8565b60405161037a9190614e0d565b60405180910390f35b34801561038f57600080fd5b506103aa60048036038101906103a59190613ead565b610bd5565b005b3480156103b857600080fd5b506103d360048036038101906103ce9190614128565b610c35565b6040516103e39493929190614d47565b60405180910390f35b3480156103f857600080fd5b50610401610d2b565b60405161040e9190614d93565b60405180910390f35b34801561042357600080fd5b5061043e60048036038101906104399190614128565b610e9c565b60405161044e9493929190614d47565b60405180910390f35b34801561046357600080fd5b5061047e60048036038101906104799190613ead565b610f82565b005b34801561048c57600080fd5b506104a760048036038101906104a29190613e1f565b610fa2565b6040516104b49190614db5565b60405180910390f35b3480156104c957600080fd5b506104e460048036038101906104df9190614128565b611039565b6040516104f49493929190614d47565b60405180910390f35b34801561050957600080fd5b50610524600480360381019061051f9190614128565b61112f565b6040516105319190614c0b565b60405180910390f35b34801561054657600080fd5b50610561600480360381019061055c9190614128565b6111e1565b60405161056f9291906150e7565b60405180910390f35b34801561058457600080fd5b5061059f600480360381019061059a9190614128565b611212565b6040516105ac91906150aa565b60405180910390f35b3480156105c157600080fd5b506105dc60048036038101906105d79190613e1f565b61138c565b6040516105e991906150cc565b60405180910390f35b3480156105fe57600080fd5b5061061960048036038101906106149190614128565b611444565b6040516106279291906150e7565b60405180910390f35b34801561063c57600080fd5b5061065760048036038101906106529190614033565b611485565b005b34801561066557600080fd5b5061066e611a3a565b60405161067b9190614e28565b60405180910390f35b34801561069057600080fd5b506106ab60048036038101906106a69190613ff7565b611acc565b005b3480156106b957600080fd5b506106c2611c4d565b6040516106cf91906150cc565b60405180910390f35b6106f260048036038101906106ed9190614151565b611c59565b005b34801561070057600080fd5b5061071b60048036038101906107169190613f7c565b61208b565b005b34801561072957600080fd5b50610744600480360381019061073f9190613e1f565b61223e565b6040516107519190614dd7565b60405180910390f35b34801561076657600080fd5b50610781600480360381019061077c9190613e1f565b6122ac565b005b34801561078f57600080fd5b506107aa60048036038101906107a59190614128565b612361565b6040516107b791906150cc565b60405180910390f35b3480156107cc57600080fd5b506107e760048036038101906107e29190614128565b612379565b6040516107f49190614e28565b60405180910390f35b34801561080957600080fd5b50610824600480360381019061081f9190613e1f565b6124cb565b6040516108319190614db5565b60405180910390f35b34801561084657600080fd5b50610861600480360381019061085c9190613e71565b612644565b60405161086e9190614dd7565b60405180910390f35b34801561088357600080fd5b5061089e6004803603810190610899919061418d565b6126d8565b005b3480156108ac57600080fd5b506108b5612e2e565b6040516108c29190614c0b565b60405180910390f35b3480156108d757600080fd5b506108f260048036038101906108ed9190614128565b612e54565b6040516108ff91906150cc565b60405180910390f35b600061091382612e71565b9050919050565b6060600080546109299061549b565b80601f01602080910402602001604051908101604052809291908181526020018280546109559061549b565b80156109a25780601f10610977576101008083540402835291602001916109a2565b820191906000526020600020905b81548152906001019060200180831161098557829003601f168201915b5050505050905090565b60006109b782612f53565b6109f6576040517f08c379a00000000000000000000000000000000000000000000000000000000081526004016109ed90614fea565b60405180910390fd5b6004600083815260200190815260200160002060009054906101000a900473ffffffffffffffffffffffffffffffffffffffff169050919050565b6000610a3c8261112f565b90508073ffffffffffffffffffffffffffffffffffffffff168373ffffffffffffffffffffffffffffffffffffffff161415610aad576040517f08c379a0000000000000000000000000000000000000000000000000000000008152600401610aa49061504a565b60405180910390fd5b8073ffffffffffffffffffffffffffffffffffffffff16610acc612fbf565b73ffffffffffffffffffffffffffffffffffffffff161480610afb5750610afa81610af5612fbf565b612644565b5b610b3a576040517f08c379a0000000000000000000000000000000000000000000000000000000008152600401610b3190614f2a565b60405180910390fd5b610b448383612fc7565b505050565b600d6020528160005260406000208181548110610b6557600080fd5b90600052602060002001600091509150505481565b60007f150b7a023d4804d13e8c85fb27262cb750cf6ba9f9dd3bb30d90f482ceeb4b1f905095945050505050565b6000600b600083815260200190815260200160002060010160009054906101000a900460ff169050919050565b610be6610be0612fbf565b82613080565b610c25576040517f08c379a0000000000000000000000000000000000000000000000000000000008152600401610c1c9061506a565b60405180910390fd5b610c3083838361315e565b505050565b60118181548110610c4557600080fd5b90600052602060002090600402016000915090508060000160009054906101000a900473ffffffffffffffffffffffffffffffffffffffff16908060010154908060020160009054906101000a900461ffff1690806003018054610ca89061549b565b80601f0160208091040260200160405190810160405280929190818152602001828054610cd49061549b565b8015610d215780601f10610cf657610100808354040283529160200191610d21565b820191906000526020600020905b815481529060010190602001808311610d0457829003601f168201915b5050505050905084565b60606013805480602002602001604051908101604052809291908181526020016000905b82821015610e9357838290600052602060002090600402016040518060800160405290816000820160009054906101000a900473ffffffffffffffffffffffffffffffffffffffff1673ffffffffffffffffffffffffffffffffffffffff1673ffffffffffffffffffffffffffffffffffffffff168152602001600182015481526020016002820160009054906101000a900461ffff1661ffff1661ffff168152602001600382018054610e029061549b565b80601f0160208091040260200160405190810160405280929190818152602001828054610e2e9061549b565b8015610e7b5780601f10610e5057610100808354040283529160200191610e7b565b820191906000526020600020905b815481529060010190602001808311610e5e57829003601f168201915b50505050508152505081526020019060010190610d4f565b50505050905090565b600a6020528060005260406000206000915090508060000160009054906101000a900473ffffffffffffffffffffffffffffffffffffffff16908060010154908060020160009054906101000a900461ffff1690806003018054610eff9061549b565b80601f0160208091040260200160405190810160405280929190818152602001828054610f2b9061549b565b8015610f785780601f10610f4d57610100808354040283529160200191610f78565b820191906000526020600020905b815481529060010190602001808311610f5b57829003601f168201915b5050505050905084565b610f9d8383836040518060200160405280600081525061208b565b505050565b6060600d60008373ffffffffffffffffffffffffffffffffffffffff1673ffffffffffffffffffffffffffffffffffffffff16815260200190815260200160002080548060200260200160405190810160405280929190818152602001828054801561102d57602002820191906000526020600020905b815481526020019060010190808311611019575b50505050509050919050565b6013818154811061104957600080fd5b90600052602060002090600402016000915090508060000160009054906101000a900473ffffffffffffffffffffffffffffffffffffffff16908060010154908060020160009054906101000a900461ffff16908060030180546110ac9061549b565b80601f01602080910402602001604051908101604052809291908181526020018280546110d89061549b565b80156111255780601f106110fa57610100808354040283529160200191611125565b820191906000526020600020905b81548152906001019060200180831161110857829003601f168201915b5050505050905084565b6000806002600084815260200190815260200160002060009054906101000a900473ffffffffffffffffffffffffffffffffffffffff169050600073ffffffffffffffffffffffffffffffffffffffff168173ffffffffffffffffffffffffffffffffffffffff1614156111d8576040517f08c379a00000000000000000000000000000000000000000000000000000000081526004016111cf90614f6a565b60405180910390fd5b80915050919050565b600b6020528060005260406000206000915090508060000154908060010160009054906101000a900460ff16905082565b61121a613b00565b600a600083815260200190815260200160002060000160009054906101000a900473ffffffffffffffffffffffffffffffffffffffff16816000019073ffffffffffffffffffffffffffffffffffffffff16908173ffffffffffffffffffffffffffffffffffffffff1681525050600a600083815260200190815260200160002060010154816020018181525050600a600083815260200190815260200160002060020160009054906101000a900461ffff16816040019061ffff16908161ffff1681525050600a600083815260200190815260200160002060030180546113019061549b565b80601f016020809104026020016040519081016040528092919081815260200182805461132d9061549b565b801561137a5780601f1061134f5761010080835404028352916020019161137a565b820191906000526020600020905b81548152906001019060200180831161135d57829003601f168201915b50505050508160600181905250919050565b60008073ffffffffffffffffffffffffffffffffffffffff168273ffffffffffffffffffffffffffffffffffffffff1614156113fd576040517f08c379a00000000000000000000000000000000000000000000000000000000081526004016113f490614f4a565b60405180910390fd5b600360008373ffffffffffffffffffffffffffffffffffffffff1673ffffffffffffffffffffffffffffffffffffffff168152602001908152602001600020549050919050565b6012818154811061145457600080fd5b90600052602060002090600202016000915090508060000154908060010160009054906101000a900460ff16905082565b61148f60076133ba565b600061149b60076133d0565b90506114a784826133de565b83600a600083815260200190815260200160002060000160006101000a81548173ffffffffffffffffffffffffffffffffffffffff021916908373ffffffffffffffffffffffffffffffffffffffff16021790555080600a60008381526020019081526020016000206001018190555081600a600083815260200190815260200160002060020160006101000a81548161ffff021916908361ffff16021790555061155281846135ac565b82600a6000838152602001908152602001600020600301908051906020019061157c929190613b42565b5060006040518060400160405280838152602001600060038111156115ca577f4e487b7100000000000000000000000000000000000000000000000000000000600052602160045260246000fd5b815250905080600b60008481526020019081526020016000206000820151816000015560208201518160010160006101000a81548160ff0219169083600381111561163e577f4e487b7100000000000000000000000000000000000000000000000000000000600052602160045260246000fd5b021790555090505060128190806001815401808255809150506001900390600052602060002090600202016000909190919091506000820151816000015560208201518160010160006101000a81548160ff021916908360038111156116cd577f4e487b7100000000000000000000000000000000000000000000000000000000600052602160045260246000fd5b0217905550505060011515600f60003373ffffffffffffffffffffffffffffffffffffffff1673ffffffffffffffffffffffffffffffffffffffff16815260200190815260200160002060009054906101000a900460ff1615151415611830576011600a600084815260200190815260200160002090806001815401808255809150506001900390600052602060002090600402016000909190919091506000820160009054906101000a900473ffffffffffffffffffffffffffffffffffffffff168160000160006101000a81548173ffffffffffffffffffffffffffffffffffffffff021916908373ffffffffffffffffffffffffffffffffffffffff160217905550600182015481600101556002820160009054906101000a900461ffff168160020160006101000a81548161ffff021916908361ffff16021790555060038201816003019080546118219061549b565b61182c929190613bc8565b5050505b6013600a600084815260200190815260200160002090806001815401808255809150506001900390600052602060002090600402016000909190919091506000820160009054906101000a900473ffffffffffffffffffffffffffffffffffffffff168160000160006101000a81548173ffffffffffffffffffffffffffffffffffffffff021916908373ffffffffffffffffffffffffffffffffffffffff160217905550600182015481600101556002820160009054906101000a900461ffff168160020160006101000a81548161ffff021916908361ffff16021790555060038201816003019080546119249061549b565b61192f929190613bc8565b505050600d60003373ffffffffffffffffffffffffffffffffffffffff1673ffffffffffffffffffffffffffffffffffffffff1681526020019081526020016000208290806001815401808255809150506001900390600052602060002001600090919091909150556000600d60003373ffffffffffffffffffffffffffffffffffffffff1673ffffffffffffffffffffffffffffffffffffffff16815260200190815260200160002080549050905080600e6000858152602001908152602001600020819055507fe678c8da3d2d6082f140bbbaa1ee822f0c7072ab604536db4a3e0315f8a92776338685604051611a2a93929190614ce0565b60405180910390a1505050505050565b606060018054611a499061549b565b80601f0160208091040260200160405190810160405280929190818152602001828054611a759061549b565b8015611ac25780601f10611a9757610100808354040283529160200191611ac2565b820191906000526020600020905b815481529060010190602001808311611aa557829003601f168201915b5050505050905090565b611ad4612fbf565b73ffffffffffffffffffffffffffffffffffffffff168273ffffffffffffffffffffffffffffffffffffffff161415611b42576040517f08c379a0000000000000000000000000000000000000000000000000000000008152600401611b3990614eca565b60405180910390fd5b8060056000611b4f612fbf565b73ffffffffffffffffffffffffffffffffffffffff1673ffffffffffffffffffffffffffffffffffffffff16815260200190815260200160002060008473ffffffffffffffffffffffffffffffffffffffff1673ffffffffffffffffffffffffffffffffffffffff16815260200190815260200160002060006101000a81548160ff0219169083151502179055508173ffffffffffffffffffffffffffffffffffffffff16611bfc612fbf565b73ffffffffffffffffffffffffffffffffffffffff167f17307eab39ab6107e8899845ad3d59bd9653f200f220920489ca2b5937696c3183604051611c419190614dd7565b60405180910390a35050565b60078060000154905081565b60008190506000600960008581526020019081526020016000205490506000811415611cba576040517f08c379a0000000000000000000000000000000000000000000000000000000008152600401611cb19061508a565b60405180910390fd5b803414611cfc576040517f08c379a0000000000000000000000000000000000000000000000000000000008152600401611cf390614e8a565b60405180910390fd5b60006010600086815260200190815260200160002060009054906101000a900473ffffffffffffffffffffffffffffffffffffffff1690506000600b6000878152602001908152602001600020604051806040016040529081600082015481526020016001820160009054906101000a900460ff166003811115611da9577f4e487b7100000000000000000000000000000000000000000000000000000000600052602160045260246000fd5b6003811115611de1577f4e487b7100000000000000000000000000000000000000000000000000000000600052602160045260246000fd5b815250509050600281602001906003811115611e26577f4e487b7100000000000000000000000000000000000000000000000000000000600052602160045260246000fd5b90816003811115611e60577f4e487b7100000000000000000000000000000000000000000000000000000000600052602160045260246000fd5b8152505080600b60008881526020019081526020016000206000820151816000015560208201518160010160006101000a81548160ff02191690836003811115611ed3577f4e487b7100000000000000000000000000000000000000000000000000000000600052602160045260246000fd5b02179055509050508373ffffffffffffffffffffffffffffffffffffffff166323b872dd3033896040518463ffffffff1660e01b8152600401611f1893929190614c5d565b600060405180830381600087803b158015611f3257600080fd5b505af1158015611f46573d6000803e3d6000fd5b5050505060006064600534611f5b91906152ee565b611f6591906152bd565b905060008134611f759190615348565b90506000600c60009054906101000a900473ffffffffffffffffffffffffffffffffffffffff1690508073ffffffffffffffffffffffffffffffffffffffff166108fc849081150290604051600060405180830381858888f19350505050158015611fe4573d6000803e3d6000fd5b508473ffffffffffffffffffffffffffffffffffffffff166108fc839081150290604051600060405180830381858888f1935050505015801561202b573d6000803e3d6000fd5b506000600960008b8152602001908152602001600020819055507fa5ff468a42a1c7f5a78dd6683a9722f1ef3c388d590959bbd7a6d2c837fcab0785338b60405161207893929190614c26565b60405180910390a1505050505050505050565b61209c612096612fbf565b83613080565b6120db576040517f08c379a00000000000000000000000000000000000000000000000000000000081526004016120d29061506a565b60405180910390fd5b6120e784848484613620565b6000600e60008481526020019081526020016000205490506000600d60008773ffffffffffffffffffffffffffffffffffffffff1673ffffffffffffffffffffffffffffffffffffffff168152602001908152602001600020905080600182805490506121549190615348565b8154811061218b577f4e487b7100000000000000000000000000000000000000000000000000000000600052603260045260246000fd5b9060005260206000200154816001846121a49190615348565b815481106121db577f4e487b7100000000000000000000000000000000000000000000000000000000600052603260045260246000fd5b906000526020600020018190555080805480612220577f4e487b7100000000000000000000000000000000000000000000000000000000600052603160045260246000fd5b60019003818190600052602060002001600090559055505050505050565b600060011515600f60008473ffffffffffffffffffffffffffffffffffffffff1673ffffffffffffffffffffffffffffffffffffffff16815260200190815260200160002060009054906101000a900460ff16151514156122a257600190506122a7565b600090505b919050565b600c60009054906101000a900473ffffffffffffffffffffffffffffffffffffffff1673ffffffffffffffffffffffffffffffffffffffff163373ffffffffffffffffffffffffffffffffffffffff161461230657600080fd5b6001600f60008373ffffffffffffffffffffffffffffffffffffffff1673ffffffffffffffffffffffffffffffffffffffff16815260200190815260200160002060006101000a81548160ff02191690831515021790555050565b600e6020528060005260406000206000915090505481565b606061238482612f53565b6123c3576040517f08c379a00000000000000000000000000000000000000000000000000000000081526004016123ba90614fca565b60405180910390fd5b60006006600084815260200190815260200160002080546123e39061549b565b80601f016020809104026020016040519081016040528092919081815260200182805461240f9061549b565b801561245c5780601f106124315761010080835404028352916020019161245c565b820191906000526020600020905b81548152906001019060200180831161243f57829003601f168201915b50505050509050600061246d61367c565b90506000815114156124835781925050506124c6565b6000825111156124b85780826040516020016124a0929190614be7565b604051602081830303815290604052925050506124c6565b6124c184613693565b925050505b919050565b6060600082905060606000805b601380549050811015612638578373ffffffffffffffffffffffffffffffffffffffff1660138281548110612536577f4e487b7100000000000000000000000000000000000000000000000000000000600052603260045260246000fd5b906000526020600020906004020160000160009054906101000a900473ffffffffffffffffffffffffffffffffffffffff1673ffffffffffffffffffffffffffffffffffffffff16141561262557601381815481106125be577f4e487b7100000000000000000000000000000000000000000000000000000000600052603260045260246000fd5b906000526020600020906004020160010154838381518110612609577f4e487b7100000000000000000000000000000000000000000000000000000000600052603260045260246000fd5b6020026020010181815250506001826126229190615267565b91505b8080612630906154cd565b9150506124d8565b50819350505050919050565b6000600560008473ffffffffffffffffffffffffffffffffffffffff1673ffffffffffffffffffffffffffffffffffffffff16815260200190815260200160002060008373ffffffffffffffffffffffffffffffffffffffff1673ffffffffffffffffffffffffffffffffffffffff16815260200190815260200160002060009054906101000a900460ff16905092915050565b600081905060008173ffffffffffffffffffffffffffffffffffffffff16636352211e866040518263ffffffff1660e01b815260040161271891906150cc565b60206040518083038186803b15801561273057600080fd5b505afa158015612744573d6000803e3d6000fd5b505050506040513d601f19601f820116820180604052508101906127689190613e48565b9050600073ffffffffffffffffffffffffffffffffffffffff168173ffffffffffffffffffffffffffffffffffffffff1614156127da576040517f08c379a00000000000000000000000000000000000000000000000000000000081526004016127d190614f0a565b60405180910390fd5b8073ffffffffffffffffffffffffffffffffffffffff163373ffffffffffffffffffffffffffffffffffffffff161461281257600080fd5b806010600087815260200190815260200160002060006101000a81548173ffffffffffffffffffffffffffffffffffffffff021916908373ffffffffffffffffffffffffffffffffffffffff1602179055506000600b60008781526020019081526020016000206000015414156129e05760006040518060400160405280878152602001600160038111156128d0577f4e487b7100000000000000000000000000000000000000000000000000000000600052602160045260246000fd5b815250905080600b60008881526020019081526020016000206000820151816000015560208201518160010160006101000a81548160ff02191690836003811115612944577f4e487b7100000000000000000000000000000000000000000000000000000000600052602160045260246000fd5b021790555090505060128190806001815401808255809150506001900390600052602060002090600202016000909190919091506000820151816000015560208201518160010160006101000a81548160ff021916908360038111156129d3577f4e487b7100000000000000000000000000000000000000000000000000000000600052602160045260246000fd5b0217905550505050612b89565b6000600b6000878152602001908152602001600020604051806040016040529081600082015481526020016001820160009054906101000a900460ff166003811115612a55577f4e487b7100000000000000000000000000000000000000000000000000000000600052602160045260246000fd5b6003811115612a8d577f4e487b7100000000000000000000000000000000000000000000000000000000600052602160045260246000fd5b815250509050600181602001906003811115612ad2577f4e487b7100000000000000000000000000000000000000000000000000000000600052602160045260246000fd5b90816003811115612b0c577f4e487b7100000000000000000000000000000000000000000000000000000000600052602160045260246000fd5b8152505080600b60008881526020019081526020016000206000820151816000015560208201518160010160006101000a81548160ff02191690836003811115612b7f577f4e487b7100000000000000000000000000000000000000000000000000000000600052602160045260246000fd5b0217905550905050505b600073ffffffffffffffffffffffffffffffffffffffff16600a600087815260200190815260200160002060000160009054906101000a900473ffffffffffffffffffffffffffffffffffffffff1673ffffffffffffffffffffffffffffffffffffffff161415612d675780600a600087815260200190815260200160002060000160006101000a81548173ffffffffffffffffffffffffffffffffffffffff021916908373ffffffffffffffffffffffffffffffffffffffff16021790555084600a6000878152602001908152602001600020600101819055506013600a600087815260200190815260200160002090806001815401808255809150506001900390600052602060002090600402016000909190919091506000820160009054906101000a900473ffffffffffffffffffffffffffffffffffffffff168160000160006101000a81548173ffffffffffffffffffffffffffffffffffffffff021916908373ffffffffffffffffffffffffffffffffffffffff160217905550600182015481600101556002820160009054906101000a900461ffff168160020160006101000a81548161ffff021916908361ffff1602179055506003820181600301908054612d589061549b565b612d63929190613bc8565b5050505b8360096000878152602001908152602001600020819055508173ffffffffffffffffffffffffffffffffffffffff166342842e0e3330886040518463ffffffff1660e01b8152600401612dbc93929190614c5d565b600060405180830381600087803b158015612dd657600080fd5b505af1158015612dea573d6000803e3d6000fd5b505050507f187c2457bfa91b5a47630bfa195c7c0431b8947f23fc5a0a2af63c1f7dd8ef843386604051612e1f929190614d1e565b60405180910390a15050505050565b600c60009054906101000a900473ffffffffffffffffffffffffffffffffffffffff1681565b600060096000838152602001908152602001600020549050919050565b60007f80ac58cd000000000000000000000000000000000000000000000000000000007bffffffffffffffffffffffffffffffffffffffffffffffffffffffff1916827bffffffffffffffffffffffffffffffffffffffffffffffffffffffff19161480612f3c57507f5b5e139f000000000000000000000000000000000000000000000000000000007bffffffffffffffffffffffffffffffffffffffffffffffffffffffff1916827bffffffffffffffffffffffffffffffffffffffffffffffffffffffff1916145b80612f4c5750612f4b8261373a565b5b9050919050565b60008073ffffffffffffffffffffffffffffffffffffffff166002600084815260200190815260200160002060009054906101000a900473ffffffffffffffffffffffffffffffffffffffff1673ffffffffffffffffffffffffffffffffffffffff1614159050919050565b600033905090565b816004600083815260200190815260200160002060006101000a81548173ffffffffffffffffffffffffffffffffffffffff021916908373ffffffffffffffffffffffffffffffffffffffff160217905550808273ffffffffffffffffffffffffffffffffffffffff1661303a8361112f565b73ffffffffffffffffffffffffffffffffffffffff167f8c5be1e5ebec7d5bd14f71427d1e84f3dd0314c0f7b2291e5b200ac8c7c3b92560405160405180910390a45050565b600061308b82612f53565b6130ca576040517f08c379a00000000000000000000000000000000000000000000000000000000081526004016130c190614eea565b60405180910390fd5b60006130d58361112f565b90508073ffffffffffffffffffffffffffffffffffffffff168473ffffffffffffffffffffffffffffffffffffffff16148061314457508373ffffffffffffffffffffffffffffffffffffffff1661312c846109ac565b73ffffffffffffffffffffffffffffffffffffffff16145b8061315557506131548185612644565b5b91505092915050565b8273ffffffffffffffffffffffffffffffffffffffff1661317e8261112f565b73ffffffffffffffffffffffffffffffffffffffff16146131d4576040517f08c379a00000000000000000000000000000000000000000000000000000000081526004016131cb9061500a565b60405180910390fd5b600073ffffffffffffffffffffffffffffffffffffffff168273ffffffffffffffffffffffffffffffffffffffff161415613244576040517f08c379a000000000000000000000000000000000000000000000000000000000815260040161323b90614eaa565b60405180910390fd5b61324f8383836137a4565b61325a600082612fc7565b6001600360008573ffffffffffffffffffffffffffffffffffffffff1673ffffffffffffffffffffffffffffffffffffffff16815260200190815260200160002060008282546132aa9190615348565b925050819055506001600360008473ffffffffffffffffffffffffffffffffffffffff1673ffffffffffffffffffffffffffffffffffffffff16815260200190815260200160002060008282546133019190615267565b92505081905550816002600083815260200190815260200160002060006101000a81548173ffffffffffffffffffffffffffffffffffffffff021916908373ffffffffffffffffffffffffffffffffffffffff160217905550808273ffffffffffffffffffffffffffffffffffffffff168473ffffffffffffffffffffffffffffffffffffffff167fddf252ad1be2c89b69c2b068fc378daa952ba7f163c4a11628f55a4df523b3ef60405160405180910390a4505050565b6001816000016000828254019250508190555050565b600081600001549050919050565b600073ffffffffffffffffffffffffffffffffffffffff168273ffffffffffffffffffffffffffffffffffffffff16141561344e576040517f08c379a000000000000000000000000000000000000000000000000000000000815260040161344590614faa565b60405180910390fd5b61345781612f53565b15613497576040517f08c379a000000000000000000000000000000000000000000000000000000000815260040161348e90614e6a565b60405180910390fd5b6134a3600083836137a4565b6001600360008473ffffffffffffffffffffffffffffffffffffffff1673ffffffffffffffffffffffffffffffffffffffff16815260200190815260200160002060008282546134f39190615267565b92505081905550816002600083815260200190815260200160002060006101000a81548173ffffffffffffffffffffffffffffffffffffffff021916908373ffffffffffffffffffffffffffffffffffffffff160217905550808273ffffffffffffffffffffffffffffffffffffffff16600073ffffffffffffffffffffffffffffffffffffffff167fddf252ad1be2c89b69c2b068fc378daa952ba7f163c4a11628f55a4df523b3ef60405160405180910390a45050565b6135b582612f53565b6135f4576040517f08c379a00000000000000000000000000000000000000000000000000000000081526004016135eb90614f8a565b60405180910390fd5b8060066000848152602001908152602001600020908051906020019061361b929190613b42565b505050565b61362b84848461315e565b613637848484846137a9565b613676576040517f08c379a000000000000000000000000000000000000000000000000000000000815260040161366d90614e4a565b60405180910390fd5b50505050565b606060405180602001604052806000815250905090565b606061369e82612f53565b6136dd576040517f08c379a00000000000000000000000000000000000000000000000000000000081526004016136d49061502a565b60405180910390fd5b60006136e761367c565b905060008151116137075760405180602001604052806000815250613732565b8061371184613940565b604051602001613722929190614be7565b6040516020818303038152906040525b915050919050565b60007f01ffc9a7000000000000000000000000000000000000000000000000000000007bffffffffffffffffffffffffffffffffffffffffffffffffffffffff1916827bffffffffffffffffffffffffffffffffffffffffffffffffffffffff1916149050919050565b505050565b60006137ca8473ffffffffffffffffffffffffffffffffffffffff16613aed565b15613933578373ffffffffffffffffffffffffffffffffffffffff1663150b7a026137f3612fbf565b8786866040518563ffffffff1660e01b81526004016138159493929190614c94565b602060405180830381600087803b15801561382f57600080fd5b505af192505050801561386057506040513d601f19601f8201168201806040525081019061385d91906140ff565b60015b6138e3573d8060008114613890576040519150601f19603f3d011682016040523d82523d6000602084013e613895565b606091505b506000815114156138db576040517f08c379a00000000000000000000000000000000000000000000000000000000081526004016138d290614e4a565b60405180910390fd5b805181602001fd5b63150b7a0260e01b7bffffffffffffffffffffffffffffffffffffffffffffffffffffffff1916817bffffffffffffffffffffffffffffffffffffffffffffffffffffffff191614915050613938565b600190505b949350505050565b60606000821415613988576040518060400160405280600181526020017f30000000000000000000000000000000000000000000000000000000000000008152509050613ae8565b600082905060005b600082146139ba5780806139a3906154cd565b915050600a826139b391906152bd565b9150613990565b60008167ffffffffffffffff8111156139fc577f4e487b7100000000000000000000000000000000000000000000000000000000600052604160045260246000fd5b6040519080825280601f01601f191660200182016040528015613a2e5781602001600182028036833780820191505090505b5090505b60008514613ae157600182613a479190615348565b9150600a85613a569190615516565b6030613a629190615267565b60f81b818381518110613a9e577f4e487b7100000000000000000000000000000000000000000000000000000000600052603260045260246000fd5b60200101907effffffffffffffffffffffffffffffffffffffffffffffffffffffffffffff1916908160001a905350600a85613ada91906152bd565b9450613a32565b8093505050505b919050565b600080823b905060008111915050919050565b6040518060800160405280600073ffffffffffffffffffffffffffffffffffffffff16815260200160008152602001600061ffff168152602001606081525090565b828054613b4e9061549b565b90600052602060002090601f016020900481019282613b705760008555613bb7565b82601f10613b8957805160ff1916838001178555613bb7565b82800160010185558215613bb7579182015b82811115613bb6578251825591602001919060010190613b9b565b5b509050613bc49190613c55565b5090565b828054613bd49061549b565b90600052602060002090601f016020900481019282613bf65760008555613c44565b82601f10613c075780548555613c44565b82800160010185558215613c4457600052602060002091601f016020900482015b82811115613c43578254825591600101919060010190613c28565b5b509050613c519190613c55565b5090565b5b80821115613c6e576000816000905550600101613c56565b5090565b6000613c85613c8084615141565b615110565b905082815260208101848484011115613c9d57600080fd5b613ca8848285615459565b509392505050565b6000613cc3613cbe84615171565b615110565b905082815260208101848484011115613cdb57600080fd5b613ce6848285615459565b509392505050565b600081359050613cfd81615657565b92915050565b600081519050613d1281615657565b92915050565b600081359050613d278161566e565b92915050565b600081359050613d3c81615685565b92915050565b600081519050613d5181615685565b92915050565b60008083601f840112613d6957600080fd5b8235905067ffffffffffffffff811115613d8257600080fd5b602083019150836001820283011115613d9a57600080fd5b9250929050565b600082601f830112613db257600080fd5b8135613dc2848260208601613c72565b91505092915050565b600082601f830112613ddc57600080fd5b8135613dec848260208601613cb0565b91505092915050565b600081359050613e048161569c565b92915050565b600081359050613e19816156b3565b92915050565b600060208284031215613e3157600080fd5b6000613e3f84828501613cee565b91505092915050565b600060208284031215613e5a57600080fd5b6000613e6884828501613d03565b91505092915050565b60008060408385031215613e8457600080fd5b6000613e9285828601613cee565b9250506020613ea385828601613cee565b9150509250929050565b600080600060608486031215613ec257600080fd5b6000613ed086828701613cee565b9350506020613ee186828701613cee565b9250506040613ef286828701613e0a565b9150509250925092565b600080600080600060808688031215613f1457600080fd5b6000613f2288828901613cee565b9550506020613f3388828901613cee565b9450506040613f4488828901613e0a565b935050606086013567ffffffffffffffff811115613f6157600080fd5b613f6d88828901613d57565b92509250509295509295909350565b60008060008060808587031215613f9257600080fd5b6000613fa087828801613cee565b9450506020613fb187828801613cee565b9350506040613fc287828801613e0a565b925050606085013567ffffffffffffffff811115613fdf57600080fd5b613feb87828801613da1565b91505092959194509250565b6000806040838503121561400a57600080fd5b600061401885828601613cee565b925050602061402985828601613d18565b9150509250929050565b60008060006060848603121561404857600080fd5b600061405686828701613cee565b935050602084013567ffffffffffffffff81111561407357600080fd5b61407f86828701613dcb565b925050604061409086828701613df5565b9150509250925092565b600080604083850312156140ad57600080fd5b60006140bb85828601613cee565b92505060206140cc85828601613e0a565b9150509250929050565b6000602082840312156140e857600080fd5b60006140f684828501613d2d565b91505092915050565b60006020828403121561411157600080fd5b600061411f84828501613d42565b91505092915050565b60006020828403121561413a57600080fd5b600061414884828501613e0a565b91505092915050565b6000806040838503121561416457600080fd5b600061417285828601613e0a565b925050602061418385828601613cee565b9150509250929050565b6000806000606084860312156141a257600080fd5b60006141b086828701613e0a565b93505060206141c186828701613e0a565b92505060406141d286828701613cee565b9150509250925092565b60006141e88383614ae5565b905092915050565b60006141fc8383614bc9565b60208301905092915050565b61421181615411565b82525050565b6142208161537c565b82525050565b61422f8161537c565b82525050565b6000614240826151c1565b61424a8185615207565b93508360208202850161425c856151a1565b8060005b85811015614298578484038952815161427985826141dc565b9450614284836151ed565b925060208a01995050600181019050614260565b50829750879550505050505092915050565b60006142b5826151cc565b6142bf8185615218565b93506142ca836151b1565b8060005b838110156142fb5781516142e288826141f0565b97506142ed836151fa565b9250506001810190506142ce565b5085935050505092915050565b6143118161538e565b82525050565b6143208161539a565b82525050565b6000614331826151d7565b61433b8185615229565b935061434b818560208601615468565b61435481615632565b840191505092915050565b61436881615423565b82525050565b6000614379826151e2565b614383818561523a565b9350614393818560208601615468565b61439c81615632565b840191505092915050565b60006143b2826151e2565b6143bc818561524b565b93506143cc818560208601615468565b6143d581615632565b840191505092915050565b60006143eb826151e2565b6143f5818561525c565b9350614405818560208601615468565b80840191505092915050565b600061441e60328361524b565b91507f4552433732313a207472616e7366657220746f206e6f6e20455243373231526560008301527f63656976657220696d706c656d656e74657200000000000000000000000000006020830152604082019050919050565b6000614484601c8361524b565b91507f4552433732313a20746f6b656e20616c7265616479206d696e746564000000006000830152602082019050919050565b60006144c460308361524b565b91507f627579546f6b656e3a20707269636520646f65736e277420657175616c20736160008301527f6c6550726963655b746f6b656e49645d000000000000000000000000000000006020830152604082019050919050565b600061452a60248361524b565b91507f4552433732313a207472616e7366657220746f20746865207a65726f2061646460008301527f72657373000000000000000000000000000000000000000000000000000000006020830152604082019050919050565b600061459060198361524b565b91507f4552433732313a20617070726f766520746f2063616c6c6572000000000000006000830152602082019050919050565b60006145d0602c8361524b565b91507f4552433732313a206f70657261746f7220717565727920666f72206e6f6e657860008301527f697374656e7420746f6b656e00000000000000000000000000000000000000006020830152604082019050919050565b6000614636601a8361524b565b91507f73657453616c653a206e6f6e6578697374656e7420746f6b656e0000000000006000830152602082019050919050565b600061467660388361524b565b91507f4552433732313a20617070726f76652063616c6c6572206973206e6f74206f7760008301527f6e6572206e6f7220617070726f76656420666f7220616c6c00000000000000006020830152604082019050919050565b60006146dc602a8361524b565b91507f4552433732313a2062616c616e636520717565727920666f7220746865207a6560008301527f726f2061646472657373000000000000000000000000000000000000000000006020830152604082019050919050565b600061474260298361524b565b91507f4552433732313a206f776e657220717565727920666f72206e6f6e657869737460008301527f656e7420746f6b656e00000000000000000000000000000000000000000000006020830152604082019050919050565b60006147a8602e8361524b565b91507f45524337323155524953746f726167653a2055524920736574206f66206e6f6e60008301527f6578697374656e7420746f6b656e0000000000000000000000000000000000006020830152604082019050919050565b600061480e60208361524b565b91507f4552433732313a206d696e7420746f20746865207a65726f20616464726573736000830152602082019050919050565b600061484e60318361524b565b91507f45524337323155524953746f726167653a2055524920717565727920666f722060008301527f6e6f6e6578697374656e7420746f6b656e0000000000000000000000000000006020830152604082019050919050565b60006148b4602c8361524b565b91507f4552433732313a20617070726f76656420717565727920666f72206e6f6e657860008301527f697374656e7420746f6b656e00000000000000000000000000000000000000006020830152604082019050919050565b600061491a60298361524b565b91507f4552433732313a207472616e73666572206f6620746f6b656e2074686174206960008301527f73206e6f74206f776e00000000000000000000000000000000000000000000006020830152604082019050919050565b6000614980602f8361524b565b91507f4552433732314d657461646174613a2055524920717565727920666f72206e6f60008301527f6e6578697374656e7420746f6b656e00000000000000000000000000000000006020830152604082019050919050565b60006149e660218361524b565b91507f4552433732313a20617070726f76616c20746f2063757272656e74206f776e6560008301527f72000000000000000000000000000000000000000000000000000000000000006020830152604082019050919050565b6000614a4c60318361524b565b91507f4552433732313a207472616e736665722063616c6c6572206973206e6f74206f60008301527f776e6572206e6f7220617070726f7665640000000000000000000000000000006020830152604082019050919050565b6000614ab260188361524b565b91507f627579546f6b656e3a20707269636520657175616c73203000000000000000006000830152602082019050919050565b6000608083016000830151614afd6000860182614217565b506020830151614b106020860182614bc9565b506040830151614b236040860182614bab565b5060608301518482036060860152614b3b828261436e565b9150508091505092915050565b6000608083016000830151614b606000860182614217565b506020830151614b736020860182614bc9565b506040830151614b866040860182614bab565b5060608301518482036060860152614b9e828261436e565b9150508091505092915050565b614bb4816153d9565b82525050565b614bc3816153d9565b82525050565b614bd281615407565b82525050565b614be181615407565b82525050565b6000614bf382856143e0565b9150614bff82846143e0565b91508190509392505050565b6000602082019050614c206000830184614226565b92915050565b6000606082019050614c3b6000830186614208565b614c486020830185614226565b614c556040830184614bd8565b949350505050565b6000606082019050614c726000830186614226565b614c7f6020830185614226565b614c8c6040830184614bd8565b949350505050565b6000608082019050614ca96000830187614226565b614cb66020830186614226565b614cc36040830185614bd8565b8181036060830152614cd58184614326565b905095945050505050565b6000606082019050614cf56000830186614226565b8181036020830152614d0781856143a7565b9050614d166040830184614bd8565b949350505050565b6000604082019050614d336000830185614226565b614d406020830184614bd8565b9392505050565b6000608082019050614d5c6000830187614226565b614d696020830186614bd8565b614d766040830185614bba565b8181036060830152614d8881846143a7565b905095945050505050565b60006020820190508181036000830152614dad8184614235565b905092915050565b60006020820190508181036000830152614dcf81846142aa565b905092915050565b6000602082019050614dec6000830184614308565b92915050565b6000602082019050614e076000830184614317565b92915050565b6000602082019050614e22600083018461435f565b92915050565b60006020820190508181036000830152614e4281846143a7565b905092915050565b60006020820190508181036000830152614e6381614411565b9050919050565b60006020820190508181036000830152614e8381614477565b9050919050565b60006020820190508181036000830152614ea3816144b7565b9050919050565b60006020820190508181036000830152614ec38161451d565b9050919050565b60006020820190508181036000830152614ee381614583565b9050919050565b60006020820190508181036000830152614f03816145c3565b9050919050565b60006020820190508181036000830152614f2381614629565b9050919050565b60006020820190508181036000830152614f4381614669565b9050919050565b60006020820190508181036000830152614f63816146cf565b9050919050565b60006020820190508181036000830152614f8381614735565b9050919050565b60006020820190508181036000830152614fa38161479b565b9050919050565b60006020820190508181036000830152614fc381614801565b9050919050565b60006020820190508181036000830152614fe381614841565b9050919050565b60006020820190508181036000830152615003816148a7565b9050919050565b600060208201905081810360008301526150238161490d565b9050919050565b6000602082019050818103600083015261504381614973565b9050919050565b60006020820190508181036000830152615063816149d9565b9050919050565b6000602082019050818103600083015261508381614a3f565b9050919050565b600060208201905081810360008301526150a381614aa5565b9050919050565b600060208201905081810360008301526150c48184614b48565b905092915050565b60006020820190506150e16000830184614bd8565b92915050565b60006040820190506150fc6000830185614bd8565b615109602083018461435f565b9392505050565b6000604051905081810181811067ffffffffffffffff8211171561513757615136615603565b5b8060405250919050565b600067ffffffffffffffff82111561515c5761515b615603565b5b601f19601f8301169050602081019050919050565b600067ffffffffffffffff82111561518c5761518b615603565b5b601f19601f8301169050602081019050919050565b6000819050602082019050919050565b6000819050602082019050919050565b600081519050919050565b600081519050919050565b600081519050919050565b600081519050919050565b6000602082019050919050565b6000602082019050919050565b600082825260208201905092915050565b600082825260208201905092915050565b600082825260208201905092915050565b600082825260208201905092915050565b600082825260208201905092915050565b600081905092915050565b600061527282615407565b915061527d83615407565b9250827fffffffffffffffffffffffffffffffffffffffffffffffffffffffffffffffff038211156152b2576152b1615547565b5b828201905092915050565b60006152c882615407565b91506152d383615407565b9250826152e3576152e2615576565b5b828204905092915050565b60006152f982615407565b915061530483615407565b9250817fffffffffffffffffffffffffffffffffffffffffffffffffffffffffffffffff048311821515161561533d5761533c615547565b5b828202905092915050565b600061535382615407565b915061535e83615407565b92508282101561537157615370615547565b5b828203905092915050565b6000615387826153e7565b9050919050565b60008115159050919050565b60007fffffffff0000000000000000000000000000000000000000000000000000000082169050919050565b60008190506153d482615643565b919050565b600061ffff82169050919050565b600073ffffffffffffffffffffffffffffffffffffffff82169050919050565b6000819050919050565b600061541c82615435565b9050919050565b600061542e826153c6565b9050919050565b600061544082615447565b9050919050565b6000615452826153e7565b9050919050565b82818337600083830152505050565b60005b8381101561548657808201518184015260208101905061546b565b83811115615495576000848401525b50505050565b600060028204905060018216806154b357607f821691505b602082108114156154c7576154c66155d4565b5b50919050565b60006154d882615407565b91507fffffffffffffffffffffffffffffffffffffffffffffffffffffffffffffffff82141561550b5761550a615547565b5b600182019050919050565b600061552182615407565b915061552c83615407565b92508261553c5761553b615576565b5b828206905092915050565b7f4e487b7100000000000000000000000000000000000000000000000000000000600052601160045260246000fd5b7f4e487b7100000000000000000000000000000000000000000000000000000000600052601260045260246000fd5b7f4e487b7100000000000000000000000000000000000000000000000000000000600052602160045260246000fd5b7f4e487b7100000000000000000000000000000000000000000000000000000000600052602260045260246000fd5b7f4e487b7100000000000000000000000000000000000000000000000000000000600052604160045260246000fd5b6000601f19601f8301169050919050565b60048110615654576156536155a5565b5b50565b6156608161537c565b811461566b57600080fd5b50565b6156778161538e565b811461568257600080fd5b50565b61568e8161539a565b811461569957600080fd5b50565b6156a5816153d9565b81146156b057600080fd5b50565b6156bc81615407565b81146156c757600080fd5b5056fea26469706673582212207aa4cf1ed98f903f43a99d949a41f8273b17ec94ac9f951265dee5aca9e2999864736f6c63430008000033",
  "immutableReferences": {},
  "source": "//SPDX-License-Identifier: UNLICENSED\npragma solidity ^0.8.0;\n\nimport \"@openzeppelin/contracts/token/ERC721/ERC721.sol\";\nimport \"@openzeppelin/contracts/token/ERC721/extensions/ERC721URIStorage.sol\";\nimport \"@openzeppelin/contracts/utils/Counters.sol\";\nimport \"@openzeppelin/contracts/token/ERC721/IERC721Receiver.sol\";\n\ncontract QLIPITMarketplace is ERC721URIStorage, IERC721Receiver {\n    using Counters for Counters.Counter;\n    Counters.Counter public _tokenIds;\n    mapping(uint256 => uint256) private itemIndex;\n    mapping(uint256 => uint256) private salePrice;\n    mapping(uint256 => NFTDet) public TokenDetails;\n    mapping(uint256 => NFTStateMapping) public NFTSTates;\n    address public admin;\n\n    //Tracke user owned NFTs\n    mapping(address => uint256[]) public userOwnedTokens;\n    mapping(uint256 => uint256) public tokenIsAtIndex;\n\n    enum NFTState {\n        MINTED,\n        ONSALE,\n        SOLD,\n        ARCHIVED\n    }\n\n    struct NFTDet {\n        address ownerAddress;\n        uint256 _id;\n        uint16 _category;\n        string tokenURI_;\n    }\n\n    struct NFTStateMapping {\n        uint256 tokenId;\n        NFTState nftState;\n    }\n\n    mapping(address => bool) QLIPMinters;\n    mapping(uint256 => address) nftOwners;\n\n    NFTDet[] public qlipNFTs;\n    NFTStateMapping[] public nftStates;\n    NFTDet[] public allTokens;\n\n    event Minted(address minter, string tokenURI, uint256 tokenId);\n    event SetSale(address seller, uint256 tokenId);\n    event BuyToken(address seller, address buyer, uint256 tokenId);\n\n    modifier onlyAdmin() {\n        require(msg.sender == admin);\n        _;\n    }\n\n    constructor(string memory _name, string memory _symbol)\n        ERC721(_name, _symbol)\n    {\n        admin = msg.sender;\n    }\n\n    function supportsInterface(bytes4 interfaceId)\n        public\n        view\n        virtual\n        override(ERC721)\n        returns (bool)\n    {\n        return super.supportsInterface(interfaceId);\n    }\n\n    function whiteListQLIPMinters(address qlipMinter) public onlyAdmin {\n        QLIPMinters[qlipMinter] = true;\n    }\n\n    function onERC721Received(\n        address operator,\n        address from,\n        uint256 tokenId,\n        bytes calldata data\n    ) public pure override returns (bytes4) {\n        return (\n            bytes4(keccak256(\"onERC721Received(address,address,uint256,bytes)\"))\n        );\n    }\n\n    function setSale(\n        uint256 tokenId,\n        uint256 price,\n        address _nftAddress\n    ) public {\n        ERC721 nftAddress = ERC721(_nftAddress);\n        address owner = nftAddress.ownerOf(tokenId);\n        require(owner != address(0), \"setSale: nonexistent token\");\n        require(msg.sender == owner);\n\n        nftOwners[tokenId] = owner;\n\n        if (NFTSTates[tokenId].tokenId == 0) {\n            NFTStateMapping memory nftStateChange = NFTStateMapping(\n                tokenId,\n                NFTState.ONSALE\n            );\n            NFTSTates[tokenId] = nftStateChange;\n            nftStates.push(nftStateChange);\n        } else {\n            NFTStateMapping memory nftStateChange = NFTSTates[tokenId];\n            nftStateChange.nftState = NFTState.ONSALE;\n            NFTSTates[tokenId] = nftStateChange;\n        }\n\n        if (TokenDetails[tokenId].ownerAddress == address(0)) {\n            TokenDetails[tokenId].ownerAddress = owner;\n            TokenDetails[tokenId]._id = tokenId;\n            allTokens.push(TokenDetails[tokenId]);\n        }\n        salePrice[tokenId] = price;\n        nftAddress.safeTransferFrom(msg.sender, address(this), tokenId);\n        emit SetSale(msg.sender, tokenId);\n    }\n\n    function buyTokenOnSale(uint256 tokenId, address _nftAddress)\n        public\n        payable\n    {\n        ERC721 nftAddress = ERC721(_nftAddress);\n\n        uint256 price = salePrice[tokenId];\n        require(price != 0, \"buyToken: price equals 0\");\n        require(\n            msg.value == price,\n            \"buyToken: price doesn't equal salePrice[tokenId]\"\n        );\n        address payable nftOwner = payable(nftOwners[tokenId]);\n\n        NFTStateMapping memory nftStateChange = NFTSTates[tokenId];\n        nftStateChange.nftState = NFTState.SOLD;\n        NFTSTates[tokenId] = nftStateChange;\n\n        nftAddress.transferFrom(address(this), msg.sender, tokenId);\n\n        uint256 qlipAmount = (msg.value * 5) / 100;\n        uint256 ownerAmount = msg.value - qlipAmount;\n        address payable qlipAddress = payable(admin);\n\n        //No royalty here, just flash sale and done!\n        qlipAddress.transfer(qlipAmount);\n        nftOwner.transfer(ownerAmount);\n\n        salePrice[tokenId] = 0;\n        emit BuyToken(nftOwner, msg.sender, tokenId);\n    }\n\n    function mintWithIndex(\n        address to,\n        string memory tokenURI,\n        uint16 _category\n    ) public {\n        _tokenIds.increment();\n        uint256 tokenId = _tokenIds.current();\n\n        _mint(to, tokenId);\n\n        TokenDetails[tokenId].ownerAddress = to;\n        TokenDetails[tokenId]._id = tokenId;\n        TokenDetails[tokenId]._category = _category;\n        _setTokenURI(tokenId, tokenURI);\n\n        TokenDetails[tokenId].tokenURI_ = tokenURI;\n\n        NFTStateMapping memory nftStateChange = NFTStateMapping(\n            tokenId,\n            NFTState.MINTED\n        );\n        NFTSTates[tokenId] = nftStateChange;\n        nftStates.push(nftStateChange);\n\n        if (QLIPMinters[msg.sender] == true) {\n            qlipNFTs.push(TokenDetails[tokenId]);\n        }\n\n        allTokens.push(TokenDetails[tokenId]);\n\n        //Update user owned tokens\n        userOwnedTokens[msg.sender].push(tokenId);\n        uint256 arrayLength = userOwnedTokens[msg.sender].length;\n        tokenIsAtIndex[tokenId] = arrayLength;\n\n        emit Minted(msg.sender, tokenURI, tokenId);\n    }\n\n    /**\n     * @dev See {IERC721-safeTransferFrom}.\n     */\n    function safeTransferFrom(\n        address from,\n        address to,\n        uint256 tokenId,\n        bytes memory _data\n    ) public virtual override {\n        require(\n            _isApprovedOrOwner(_msgSender(), tokenId),\n            \"ERC721: transfer caller is not owner nor approved\"\n        );\n        _safeTransfer(from, to, tokenId, _data);\n\n        //Remove token in from owned tokens\n        uint256 tokenIndex = tokenIsAtIndex[tokenId];\n        uint256[] storage owned = userOwnedTokens[from];\n\n        owned[tokenIndex - 1] = owned[owned.length - 1]; //Replace token position with last position\n        owned.pop(); //Pop last position to avoid duplicate\n    }\n\n    function getSalePrice(uint256 tokenId) public view returns (uint256) {\n        return salePrice[tokenId];\n    }\n\n    function __getAllTokenDetails(uint256 tokenId)\n        public\n        view\n        returns (NFTDet memory Details)\n    {\n        Details.ownerAddress = TokenDetails[tokenId].ownerAddress;\n        Details._id = TokenDetails[tokenId]._id;\n        Details._category = TokenDetails[tokenId]._category;\n        Details.tokenURI_ = TokenDetails[tokenId].tokenURI_;\n        //Here, we will set the metadata hash link of the token metadata from Pinata\n    }\n\n    function getAllTokens() public view returns (NFTDet[] memory) {\n        return allTokens;\n    }\n\n    /*\n     * @deprecated\n     */\n    function __getNftByAddress(address _nftAddress)\n        public\n        view\n        returns (uint256[] memory)\n    {\n        address userAddress = _nftAddress;\n        uint256[] memory userTokens;\n        uint256 j = 0;\n        for (uint256 i = 0; i < allTokens.length; i++) {\n            if (allTokens[i].ownerAddress == userAddress) {\n                userTokens[j] = allTokens[i]._id;\n                j += 1;\n            }\n        }\n\n        return userTokens;\n    }\n\n    function getNftByAddress(address _nftAddress)\n        public\n        view\n        returns (uint256[] memory)\n    {\n        return userOwnedTokens[_nftAddress];\n    }\n\n    function getNFTState(uint256 tokenId) public view returns (NFTState) {\n        return NFTSTates[tokenId].nftState;\n    }\n\n    function isQLIPMinted(address owner) public view returns (bool) {\n        if (QLIPMinters[owner] == true) {\n            return true;\n        } else {\n            return false;\n        }\n    }\n}\n",
  "sourcePath": "/Users/drewhyte/Sites/BLOCKCHAIN/qlip-marketplace/contracts/QLIPITMarketplace.sol",
  "compiler": {
    "name": "solc",
    "version": "0.8.0+commit.c7dfd78e.Emscripten.clang"
  },
  "schemaVersion": "3.4.3",
  "updatedAt": "2021-10-10T23:31:45.421Z",
  "devdoc": {
    "kind": "dev",
    "methods": {
      "approve(address,uint256)": {
        "details": "See {IERC721-approve}."
      },
      "balanceOf(address)": {
        "details": "See {IERC721-balanceOf}."
      },
      "getApproved(uint256)": {
        "details": "See {IERC721-getApproved}."
      },
      "isApprovedForAll(address,address)": {
        "details": "See {IERC721-isApprovedForAll}."
      },
      "name()": {
        "details": "See {IERC721Metadata-name}."
      },
      "onERC721Received(address,address,uint256,bytes)": {
        "details": "Whenever an {IERC721} `tokenId` token is transferred to this contract via {IERC721-safeTransferFrom} by `operator` from `from`, this function is called. It must return its Solidity selector to confirm the token transfer. If any other value is returned or the interface is not implemented by the recipient, the transfer will be reverted. The selector can be obtained in Solidity with `IERC721.onERC721Received.selector`."
      },
      "ownerOf(uint256)": {
        "details": "See {IERC721-ownerOf}."
      },
      "safeTransferFrom(address,address,uint256)": {
        "details": "See {IERC721-safeTransferFrom}."
      },
      "safeTransferFrom(address,address,uint256,bytes)": {
        "details": "See {IERC721-safeTransferFrom}."
      },
      "setApprovalForAll(address,bool)": {
        "details": "See {IERC721-setApprovalForAll}."
      },
      "supportsInterface(bytes4)": {
        "details": "See {IERC165-supportsInterface}."
      },
      "symbol()": {
        "details": "See {IERC721Metadata-symbol}."
      },
      "tokenURI(uint256)": {
        "details": "See {IERC721Metadata-tokenURI}."
      },
      "transferFrom(address,address,uint256)": {
        "details": "See {IERC721-transferFrom}."
      }
    },
    "version": 1
  },
  "userdoc": {
    "kind": "user",
    "methods": {},
    "version": 1
  }
}